:100000000C94DD000C94FA000C94FA000C94FA00A5
:100010000C94FA000C94FA000C945C010C94FA0015
:100020000C94FA000C94FA000C94FA000C94FA0068
:100030000C94FA000C94FA000C94FA000C94FA0058
:100040000C94FA000C94FA000C94FA000C94FA0048
:100050000C94FA000C94FA000C94FA000C94FA0038
:100060000C94FA000C9477100C94FA000C94FC0099
:100070000C94FA000C94FA000C94FA006E616E0075
:10008000696E660000407A10F35A00A0724E18099B
:100090000010A5D4E80000E87648170000E40B54EF
:1000A000020000CA9A3B000000E1F50500008096BE
:1000B0009800000040420F000000A08601000000F0
:1000C000102700000000E8030000000064000000AA
:1000D00000000A00000000000100000000002C7673
:1000E000D888DC674F0823DFC1DFAE59E1B1B7968E
:1000F000E5E3E453C63AE651997696E8E6C28426EB
:10010000EB898C9B62ED407C6FFCEFBC9C9F40F2C6
:10011000BAA56FA5F490055A2AF75C936B6CF96742
:100120006DC11BFCE0E40D47FEF520E6B500D0ED07
:10013000902E0300943577050080841E080000206F
:100140004E0A000000C80C333333330F986E12830D
:100150001141EF8D2114893BE65516CFFEE6DB18E1
:10016000D1844B381BF77C1D901DA4BBE4242032A6
:1001700084725E228100C9F124ECA1E53D274E4145
:100180004E494E495459494E46CDCCCC3D0AD72311
:100190003C17B7D13877CC2B329595E6241FB14F59
:1001A0000A000020410000C84200401C4620BCBE9E
:1001B0004CCA1B0E5AAEC59D740011241FBECFEF52
:1001C000CDBFDFE3DEBF18E3A0E0B8E3E7EFF9E37C
:1001D00002C005900D92A031B107D9F72AE3A0E142
:1001E000B8E301C01D92AA3BB207E1F70E948D0F50
:1001F0000C94D81C0C9400001F920F920FB60F9213
:1002000011248F939F93AF93BF93EF93FF938091AC
:100210007A3990917B39892BE9F580910008809398
:100220008A398332B1F490918939911112C081E0F9
:100230008093893980E8ECE9F9E3DF011D928A9522
:10024000E9F7E0918939F0E0E556F64C83E28083E6
:1002500023C0909189399923D1F0E0918939F0E058
:10026000E456F64C8083909189399F5F9093893949
:1002700090918939992314F4109289398D3061F461
:1002800081E090E080937A3990937B3905C0109299
:10029000893902C080910008E4E0F8E0808180683C
:1002A0008083FF91EF91BF91AF919F918F910F90BC
:1002B0000FBE0F901F9018951F920F920FB60F92BE
:1002C00011248F93EF93FF9381E080930E38E3E442
:1002D000F1E0808181608083FF91EF918F910F9099
:1002E0000FBE0F901F9018959C01E0E0F0E1928105
:1002F00091FDFDCFF901FC5E808108959C01E0E055
:10030000F0E1928191FDFDCFF901FC5E60838DE902
:1003100084BF83E08093001008956F927F928F9244
:100320009F92AF92BF92CF92DF92EF92FF920F9384
:100330001F93CF93DF9320917E3930917F39232B08
:1003400051F44CE55FEF69E774E4FC0140835183AD
:1003500062837383EAC06130710541F062307105D8
:1003600041F0672B49F400E019E308C008E818E3FE
:1003700005C000E118E302C000E010E020918B39D5
:1003800030918C3921153105B9F420917E393091A5
:100390007F392150304C220F331F220F331FF801B9
:1003A000E20FF31F4081518162817381FC01408320
:1003B000518362837383B9C04C01809178399091E5
:1003C0007939892B09F462C03901660C771C620EF9
:1003D000731E71946194710880917E3990917F3978
:1003E000860D971D99230CF051C080917E39909114
:1003F0007F3918161906DCF45801C0E0D0E0C12C92
:10040000D12C7601F50121913191419151915F01FA
:10041000C701B6010E94AC136B017C01219680914B
:100420007E3990917F39C817D90764F305C0C0E0C1
:10043000D0E0C12CD12C760180917E3990917F390A
:10044000FEE16F0E711C680E791E2EE162167104BA
:100450000CF05AC05301AA0CBB1CAA0CBB1CA00E6A
:10046000B11E08581F4FF5012191319141915191D1
:100470005F01C701B6010E94AC136B017C010A1534
:100480001B0589F7C619D7096E963EC080917E3943
:1004900090917F39A901440F551F240F351F821BEE
:1004A000930B12F480E090E020917E3930917F39F7
:1004B0008217930724F55C01880F991F880F991FF5
:1004C000080F191FC0E0D0E0C12CD12C7601F80133
:1004D00021913191419151918F01C701B6010E9443
:1004E000AC136B017C01219620917E3930917F39CC
:1004F000CE018A0D9B1D821793074CF305C0C0E007
:10050000D0E0C12CD12C7601BE01DD0F880B990BF8
:100510000E9491149B01AC01C701B6010E941D14F9
:10052000F4016083718382839383DF91CF911F9164
:100530000F91FF90EF90DF90CF90BF90AF909F9082
:100540008F907F906F90089520918939215020934A
:1005500089391092933930918939209189399F9343
:100560008F937F936F9384EB99EB9F938F9380E8A6
:1005700090E0831B91099F938F93822F90E0845684
:10058000964C9F938F930E94BE1A809381399093CB
:10059000823990918939890F80938939809189397D
:1005A00090E0809383399093843981E090E0809348
:1005B0008539909386398DB79EB70A968DBF9EBFB9
:1005C00008958F929F92AF92BF92CF92DF92EF9257
:1005D000FF920F931F93CF93DF93B22EA32E942EEF
:1005E000852E209189392150209389391092933991
:1005F00030918939209189399F938F937F936F939D
:100600000F2EFCEBCF2EF9EBDF2EF02DDF92CF92E9
:10061000C0E8D0E0CE01831B91099F938F93822F76
:1006200090E08456964C9F938F930E94BE1A8093BD
:1006300081399093823990918939890F80938939D2
:1006400090918939809189398F929F92AF92BF9210
:10065000DF92CF929E01291B31093F932F9390E0A7
:100660008456964C9F938F930E94BE1A8093813933
:100670009093823990918939890F8093893990912B
:100680008939809189391F930F93FF92EF92DF92FE
:10069000CF92C91BD109DF93CF9390E08456964C3B
:1006A0009F938F930E94BE1A8093813990938239D1
:1006B00090918939890F809389398091893990E0A7
:1006C000809383399093843981E090E080938539D9
:1006D000909386398DB79EB74E968DBF9EBFDF91A2
:1006E000CF911F910F91FF90EF90DF90CF90BF902F
:1006F000AF909F908F900895CF92DF92EF92FF92EC
:100700000F931F93CF93DF9308E919E37801C7E0B4
:10071000D0E00F2EF1E4CF2EFAE3DF2EF02DF6011C
:1007200080819181A281B381809398399093993986
:10073000A0939A39B0939B39F70161917F01CE0163
:100740000E947E012196CB30D10549F70F2EF8E9A2
:10075000EF2EF9E3FF2EF02D0F2EF4E5CF2EFAE366
:10076000DF2EF02DF60180819181A281B3818093EB
:10077000983990939939A0939A39B0939B39F7019E
:1007800061917F01CE010E947E012196CF30D1057B
:1007900049F70F2EF4E9EF2EF9E3FF2EF02DF701C4
:1007A00080819181A281B381809398399093993906
:1007B000A0939A39B0939B39F80161918F01CE01D2
:1007C0000E947E012196C331D10549F7DF91CF9177
:1007D0001F910F91FF90EF90DF90CF900895CF92EF
:1007E000DF92EF92FF920F931F93CF93DF9308E96D
:1007F00019E37801C3E1D0E00F2EF3E3CF2EFAE343
:10080000DF2EF02DF60180819181A281B38180934A
:10081000983990939939A0939A39B0939B39F701FD
:1008200061917F01CE010E947E012196C731D105E1
:1008300049F70F2EF8E9EF2EF9E3FF2EF02D0F2EDA
:10084000FDE3CF2EFAE3DF2EF02DF60180819181BA
:10085000A281B3818093983990939939A0939A3962
:10086000B0939B39F70161917F01CE010E947E0117
:100870002196CB31D10549F70F2EFAE7EF2EFAE397
:10088000FF2EF02DF70180819181A281B3818093A9
:10089000983990939939A0939A39B0939B39F8017C
:1008A00061918F01CE010E947E012196CF31D10549
:1008B00049F7DF91CF911F910F91FF90EF90DF905B
:1008C000CF9008958F929F92AF92BF92CF92DF9276
:1008D000EF92FF920F931F93CF93DF9380917A391A
:1008E00090917B39019711F00C94530D80919D39B3
:1008F0009091613A891322C081E08093923980936C
:10090000913980919E39813631F482E08093923919
:100910008093913985C08E3639F483E08093923983
:1009200082E0809391397CC08D3609F079C084E0F3
:100930008093923982E08093913972C09091373AD6
:10094000891307C085E08093923981E080939139C3
:1009500067C090913C3A891307C086E08093923932
:1009600081E0809391395CC046E050E065EC79EB22
:100970008DE999E30E946A1A892B19F587E0809323
:10098000923986E0809391398091A339813639F488
:1009900088E08093923987E08093913941C08E3608
:1009A00039F489E08093923987E08093913938C097
:1009B0008D36B1F58AE08093923987E08093913942
:1009C0002FC046E050E06DE47AE38DE999E30E94A0
:1009D0006A1A892B19F58BE08093923986E080930F
:1009E00091398091A339813639F48CE08093923922
:1009F00087E08093913914C08E3639F48DE080936E
:100A0000923987E0809391390BC08D3649F48EE09E
:100A10008093923987E08093913902C01092923985
:100A20008AE280939C39C0919239C23009F451C74F
:100A3000C53029F08C2F8B7F883009F068C0609119
:100A4000003870910138FB0101900020E9F73197DF
:100A5000AF01461B570BD09191398D2F90E08356F3
:100A6000964C0E946A1A892B09F051C0209189394D
:100A700030E08D2F90E004962817390709F047C021
:100A800060E070E08FE29AE30E948D01C0902F3AFF
:100A9000D090303AE090313AF090323A2091543A86
:100AA0003091553A4091563A5091573AC701B601A4
:100AB0000E9446152091413A3091423A4091433A82
:100AC0005091443A0E94AC134B015C01209194393F
:100AD000309195394091963950919739C701B601B7
:100AE0000E944615A70196010E9446159B01AC0184
:100AF000C501B4010E94AC1360932F3A7093303A51
:100B00008093313A9093323A0E94A40292C5C33046
:100B100009F4F7C6C63029F08C2F8B7F893009F095
:100B200068C06091003870910138FB01019000208D
:100B3000E9F73197AF01461B570BD09191398D2FB3
:100B400090E08356964C0E946A1A892B09F051C096
:100B50002091893930E08D2F90E0049628173907CD
:100B600009F047C061E070E086E79AE30E948D01DA
:100B7000C090763AD090773AE090783AF090793A0F
:100B800020913D3A30913E3A40913F3A5091403A5F
:100B9000C701B6010E9446152091333A3091343A8C
:100BA0004091353A5091363A0E94AC134B015C01AA
:100BB00020917A3A30917B3A40917C3A50917D3A3B
:100BC000C701B6010E944615A70196010E9446156D
:100BD0009B01AC01C501B4010E94AC136093763A4D
:100BE0007093773A8093783A9093793A0E94A4026E
:100BF00020C5C43009F49DC68C2F8B7F8A3081F5C7
:100C00006091003870910138FB0101900020E9F7F4
:100C10003197AF01461B570BD09191398D2F90E042
:100C20008356964C0E946A1A892BD1F420918939F7
:100C300030E08D2F90E004962817390789F462E0A0
:100C400070E08FE29AE30E948D0160912F3A7091DB
:100C5000303A8091313A9091323A0E94A402E9C42C
:100C6000C13009F438C5C73019F0CB3009F04BC595
:100C70006091003870910138FB0101900020E9F784
:100C80003197AF01461B570BD09191398D2F90E0D2
:100C90008356964C0E946A1A892B81F420918939D7
:100CA00030E08D2F90E004962817390739F463E877
:100CB0007FE483EC97E40E94A402BBC48FEF8C0F07
:100CC000833060F0C73009F457C688EF8C0F82304C
:100CD00028F085EF8C0F833008F01BC56091023837
:100CE00070910338FB0101900020E9F73197AF01C3
:100CF000461B570BD09191390D2F10E00356164C1F
:100D0000C8010E946A1A892BA9F42091893930E020
:100D10008D2F90E004962817390761F481E08093C5
:100D200093398091893990E001978093833990932A
:100D3000843986C4C23009F4F0C48C2F8B7F88308C
:100D4000D1F56091043870910538FB0101900020C5
:100D5000E9F73197AF01461B570BD09191398D2F91
:100D600090E08356964C0E946A1A892B21F52091B7
:100D7000893930E08D2F90E0069628173907D9F48D
:100D8000E0909439F0909539009196391091973907
:100D90002091543A3091553A4091563A5091573AF1
:100DA0006091413A7091423A8091433A9091443A2D
:100DB0000E94E1023EC4C33009F4C2C48C2F8B7F71
:100DC0008930D9F56091043870910538FB010190A4
:100DD0000020E9F73197AF01461B570BD0919139AD
:100DE0008D2F90E08356964C0E946A1A892B09F049
:100DF000F2C52091893930E08D2F90E006962817B2
:100E00003907D9F4E0907A3AF0907B3A00917C3A35
:100E100010917D3A20913D3A30913E3A40913F3ACF
:100E20005091403A6091333A7091343A8091353A1A
:100E30009091363A0E94E102FCC3C23029F08C2F17
:100E40008B7F883009F09CC060910638709107381C
:100E5000FB0101900020E9F73197AF01461B570BCA
:100E6000D09191390D2F10E0C8018356964C0E9405
:100E70006A1A892B09F084C02091893930E0C801B1
:100E80008A962817390709F07BC080919339813001
:100E900009F076C0C2E6DAE30F2EF4E1FF2EF02D62
:100EA000FE012F2D11922A95E9F7F801EF55F64C26
:100EB0008CE0DE0101900D928A95E1F7CE010E944F
:100EC00083196093413A7093423A8093433A9093E6
:100ED000443AFE012F2D11922A95E9F7E0919139BC
:100EE000F0E0E355F64C8CE0DE0101900D928A951E
:100EF000E1F7CE010E9483196093543A7093553AFA
:100F00008093563A9093573AFE011192FA94E9F77A
:100F1000E0919139F0E0E754F64C8CE0DE0101906D
:100F20000D928A95E1F7CE010E948319609394395E
:100F30007093953980939639909397398091893938
:100F40008452809389390E947C03E0909439F09018
:100F5000953900919639109197392091543A3091F2
:100F6000553A4091563A5091573A6091413A7091B2
:100F7000423A8091433A9091443A0E94E10259C327
:100F8000C33009F42CC58C2F8B7F893009F09DC0AC
:100F90006091063870910738FB0101900020E9F755
:100FA0003197AF01461B570BD09191390D2F10E0AF
:100FB000C8018356964C0E946A1A892B09F085C095
:100FC0002091893930E08D2F90E08A9628173907D3
:100FD00009F07BC080919339813009F076C0C2E678
:100FE000DAE30F2EF4E1FF2EF02DFE012F2D1192EA
:100FF0002A95E9F7F801EF55F64C8CE0DE010190F7
:101000000D928A95E1F7CE010E9483196093333ADD
:101010007093343A8093353A9093363AFE012F2DEF
:1010200011922A95E9F7E0919139F0E0E355F64CF9
:101030008CE0DE0101900D928A95E1F7CE010E94CD
:10104000831960933D3A70933E3A80933F3A909370
:10105000403AFE011192FA94E9F7E0919139F0E0FB
:10106000E754F64C8CE0DE0101900D928A95E1F791
:10107000CE010E94831960937A3A70937B3A8093F1
:101080007C3A90937D3A8091893984528093893952
:101090000E94EF03E0907A3AF0907B3A00917C3A1C
:1010A00010917D3A20913D3A30913E3A40913F3A3D
:1010B0005091403A6091333A7091343A8091353A88
:1010C0009091363A0E94E102B4C2C13009F450C393
:1010D000C73019F0CB3009F087C0609108387091A3
:1010E0000938FB0101900020E9F73197AF01461B59
:1010F000570BD09191398D2F90E08356964C0E94DA
:101100006A1A892B09F484C42BC02091893930E0F4
:101110008D2F90E006962817390701F580918939BF
:1011200081508093893910929339A0918939B0E028
:10113000A456B64C86E0EDE4FAE301900D928A9550
:10114000E1F7809189398A5F809389398091893963
:1011500090E0809383399093843972C2C13029F032
:10116000C73019F0CB3009F03FC060910A38709158
:101170000B38FB0101900020E9F73197AF01461BC6
:10118000570BD09191398D2F90E08356964C0E9449
:101190006A1A892B49F52091893930E08D2F90E02A
:1011A00004962817390701F5809189398150809379
:1011B000893910929339A0918939B0E0A456B64C80
:1011C00088E0E5E4FAE301900D928A95E1F78091D9
:1011D0008939885F809389398091893990E080933B
:1011E0008339909384392CC2C23009F4D9C2C530F6
:1011F00029F08C2F8B7F883009F045C060910A3828
:1012000070910B38FB0101900020E9F73197AF0195
:10121000461B570BD09191398D2F90E08356964CF9
:101220000E946A1A892B09F0FEC32091893930E0A7
:101230008D2F90E004962817390729F58091893978
:10124000815080938939109293396DE17AE38091CE
:10125000373A0E941913E0918939F0E0E456F64CD0
:1012600080911D3A90911E3A8083918380918939B3
:101270008E5F809389398091893990E0809383399A
:1012800090938439DDC1C33009F4EAC2C63009F451
:10129000B7C2C93009F4CCC2CD3031F599C28091C2
:1012A0008939815080938939109293396DE17AE3BD
:1012B00080913C3A0E941913E0918939F0E0E4569C
:1012C000F64C80911D3A90911E3A808391838091D3
:1012D00089398E5F809389398091893990E0809334
:1012E000833990938439ACC1C13009F4D1C2C7307D
:1012F00009F4A8C3CB3009F0D0C060910C387091CC
:101300000D38FB0101900020E9F73197AF01461B32
:10131000570BD09191390D2F10E0C8018356964C90
:101320000E946A1A892B09F0B8C02091893930E0EF
:101330008D2F90E00496281739070CF4AEC08091E9
:101340009339813009F0A9C0809189398150809307
:10135000893910929339F801E156F64C80819181D8
:1013600080931D3A90931E3A8DE19AE30E942C13CC
:1013700080931C3AE0919139F0E0EF55F64C808172
:10138000918180931D3A90931E3A8DE19AE30E94D9
:101390002C138093533AC0911C3AC13218F120E0CB
:1013A00030E04CEF52E460912F3A7091303A8091E6
:1013B000313A9091323A0E94181418169CF0E0913C
:1013C0009139F0E0A5E4BAE3E456F64C83818C93BE
:1013D000848111968C93C093613A6C2F81E290E0E6
:1013E0000E947E018091533A823021F09CEF980F49
:1013F0009430B8F49091583A891719F091E090938D
:1014000080398093583AE0919139F0E0A5E4BAE34D
:10141000E456F64C858112968C931297868113962A
:101420008C93E0919139F0E0E456F64C4781A5E4C5
:10143000BAE314964C931497208515962C93159720
:10144000818516968C93169750E04053510940932E
:101450008F395093903930E02053310920938D39E2
:1014600030938E3990E0C09780938B3990938C396C
:101470008D01C2E2D0E0F80161918F01CE010E949E
:101480007E012196CA32D105B1F78091893990E069
:101490008093833990938439D3C0C23039F0C530FA
:1014A00029F08C2F8B7F883009F05EC060910C385A
:1014B00070910D38FB0101900020E9F73197AF01E1
:1014C000461B570BD09191390D2F10E0C801835660
:1014D000964C0E946A1A892B09F0F3C12091893930
:1014E00030E0C8010496281739070CF4EEC180914A
:1014F0009339813009F0E9C1809189398150809315
:10150000893910929339F801E156F64C8081918126
:1015100080931D3A90931E3A8DE19AE30E942C131A
:10152000C82F80931C3A8132B8F020E030E04CEFB5
:1015300052E460912F3A7091303A8091313A909113
:10154000323A0E94181418163CF0C093373A6C2FA8
:101550008FE190E00E947E018091893990E0809334
:101560008339909384396CC0C33031F0C63021F098
:10157000CB7FC93009F05DC060910C3870910D3897
:10158000FB0101900020E9F73197AF01461B570B93
:10159000D09191390D2F10E0C8018356964C0E94CE
:1015A0006A1A892B09F045C02091893930E08D2FC6
:1015B00090E0049628173907E4F18091933981303F
:1015C000C1F580918939815080938939109293397E
:1015D000F801E156F64C8081918180931D3A9093F9
:1015E0001E3A8DE19AE30E942C13C82F80931C3A77
:1015F0008132B8F020E030E04CEF52E460912F3AB5
:101600007091303A8091313A9091323A0E94181498
:1016100018163CF0C0933C3A6C2F80E290E00E9498
:101620007E018091893990E0809383399093843949
:1016300007C08091853990918639019709F042C0A1
:10164000109285391092863980918D3990918E391A
:101650000097E1F0109287392091873930E0281700
:101660003907A4F482E693E00197F1F700C0809176
:1016700087398F5F809387398091873990E02091F7
:101680008D3930918E398217930764F340918F39E9
:1016900050919039609183398CE999E30E944E13FF
:1016A00080918039882371F09AE2ECE2FAE091505F
:1016B000E040F040E1F70000109280398091583A04
:1016C0000E94B712109292391092893910927A3989
:1016D00010927B39E8C16091003870910138FB01AC
:1016E00001900020E9F73197AF01461B570BD091CD
:1016F00091398D2F90E08356964C0E946A1A892B5F
:1017000009F42FC139C18FEF8C0F833008F0DDCA87
:10171000E5CAC23009F04FCB14CB60910438709108
:101720000538FB0101900020E9F73197AF01461B16
:10173000570BC8010E946A1A892B09F436C184CB61
:101740006091043870910538FB0101900020E9F7A1
:101750003197AF01461B570BD09191398D2F90E0F7
:101760008356964C0E946A1A892B09F429C137C105
:101770006091083870910938FB0101900020E9F769
:101780003197AF01461B570BD09191398D2F90E0C7
:101790008356964C0E946A1A892B09F4B6CCE5CC84
:1017A00060910A3870910B38FB0101900020E9F735
:1017B0003197AF01461B570BD09191398D2F90E097
:1017C0008356964C0E946A1A892B09F42ECD6ECE50
:1017D00060910A3870910B38FB0101900020E9F705
:1017E0003197AF01461B570BD09191398D2F90E067
:1017F0008356964C0E946A1A892B09F418C1BCCEF4
:1018000060910A3870910B38FB0101900020E9F7D4
:101810003197AF01461B570BD09191398D2F90E036
:101820008356964C0E946A1A892B09F0A5CEFFC0F8
:1018300060910A3870910B38FB0101900020E9F7A4
:101840003197AF01461B570BD09191398D2F90E006
:101850008356964C0E946A1A892B09F4E8C08CCEF4
:1018600060910A3870910B38FB0101900020E9F774
:101870003197AF01461B570BD09191398D2F90E0D6
:101880008356964C0E946A1A892B09F4D0C074CEF4
:1018900060910C3870910D38FB0101900020E9F740
:1018A0003197AF01461B570BD09191390D2F10E0A6
:1018B000C8018356964C0E946A1A892B09F4DBC032
:1018C000B8CEC33009F0E2C0B4CEC33009F46CCE58
:1018D000E6C06091003870910138FB010190002052
:1018E000E9F73197AF01461B570BD09191398D2FF6
:1018F00090E08356964C0E946A1A892B09F4B6C868
:101900000BC96091003870910138FB0101900020F3
:10191000E9F73197AF01461B570BD09191398D2FC5
:1019200090E08356964C0E946A1A892B09F410C9DC
:1019300063C96091003870910138FB01019000206B
:10194000E9F73197AF01461B570BD09191398D2F95
:1019500090E08356964C0E946A1A892B09F466C956
:10196000D2CE2091893930E08D2F90E0049628174F
:10197000390709F0B3C99BC96091023870910338E7
:10198000FB0101900020E9F73197AF01461B570B8F
:10199000D09191390D2F10E00356164CC8010E94CA
:1019A0006A1A892B09F0C9C9B0C92091893930E078
:1019B0008D2F90E006962817390709F0FFC9E0C976
:1019C0002091893930E08D2F90E00696281739074D
:1019D00009F035CA17CAC23009F0D5CA35CA6091B4
:1019E000063870910738FB0101900020E9F7319724
:1019F000AF01461B570BD09191390D2F10E0C80154
:101A00008356964C0E946A1A892B09F4D9CAF1CBE5
:101A10002091893930E08D2F90E0069628173907FC
:101A200009F09ECB7BCBC33009F030CCA5CD209103
:101A3000893930E08D2F90E004962817390709F492
:101A40002ECC2FCD60910C3870910D38FB01019098
:101A50000020E9F73197AF01461B570BD091913920
:101A60000D2F10E0C8018356964C0E946A1A892BEC
:101A700009F017CD5ACC2091893930E08D2F90E0B4
:101A80000496281739070CF05ACC0BCDC63009F054
:101A90006FCDCFCDD09191390D2F10E085CDC630CF
:101AA00009F066CDF7CFDF91CF911F910F91FF9095
:101AB000EF90DF90CF90BF90AF909F908F90089560
:101AC000EF92FF920F931F93CF93DF931092413ABF
:101AD0001092423A1092433A1092443A80E090E0D9
:101AE000A0E8BFE38093543A9093553AA093563AB6
:101AF000B093573A109294391092953910929639C2
:101B0000109297391092333A1092343A1092353A33
:101B10001092363A80933D3A90933E3AA0933F3AE2
:101B2000B093403A10927A3A10927B3A10927C3AF3
:101B300010927D3A0F2EFCECEF2EF9EBFF2EF02DDC
:101B40000DE41AE3C0E0D0E0F70161917F01F801F4
:101B500061938F012196CE010E947E01C630D1058E
:101B600099F70F2EF3EDEF2EF9EBFF2EF02D05E494
:101B70001AE3C2E2D0E0F70161917F01F8016193BD
:101B80008F01CE010E947E012196CA32D10599F7BC
:101B9000C5E4DAE38881998180931D3A90931E3AD7
:101BA0008DE19AE30E942C138093613A8A819B8194
:101BB00080931D3A90931E3A8DE19AE30E942C1374
:101BC0008093583A10928F391092903910928D3933
:101BD00010928E3983E090E080938B3990938C390A
:101BE0000E947C030E94EF0362E48FE190E00E9478
:101BF0007E0163E480E290E00E947E0161E481E284
:101C000090E00E947E01DF91CF911F910F91FF9094
:101C1000EF90089580E090E00E94740108950F9382
:101C20001F93CF93DF930DE41AE3C0E0D0E0219639
:101C3000CE010E947401D8018D938D01C630D1056B
:101C4000B1F705E41AE3C2E2D0E0CE010E947401CC
:101C5000F80181938F012196CA32D105B1F7C5E40D
:101C6000DAE38C8190E0C09780938F39909390391C
:101C70008D8190E0C09780938D3990938E398E81BD
:101C800090E0C09780938B3990938C3988819981AB
:101C900080931D3A90931E3A8DE19AE30E942C1393
:101CA0008093613A8A819B8180931D3A90931E3A7A
:101CB0008DE19AE30E942C138093583A8FE190E0D3
:101CC0000E9474018093373A80E290E00E94740190
:101CD00080933C3A84E0E8E9F9E3DF011D928A95BC
:101CE000E9F710928839809188398430B0F4C09136
:101CF00088398091883990E007960E947401EC2F12
:101D0000F0E0E856F64C8083809188398F5F8093AD
:101D1000883980918839843050F3E8E9F9E380818B
:101D20009181A281B3818093413A9093423AA093EA
:101D3000433AB093443A84E0DF011D928A95E9F773
:101D400010928839809188398430B0F4C0918839F4
:101D50008091883990E00B960E947401EC2FF0E09E
:101D6000E856F64C8083809188398F5F809388395C
:101D700080918839843050F3E8E9F9E380819181DA
:101D8000A281B3818093543A9093553AA093563AE6
:101D9000B093573A84E0DF011D928A95E9F71092DB
:101DA0008839809188398430B0F4C0918839809125
:101DB000883990E00F960E947401EC2FF0E0E8560D
:101DC000F64C8083809188398F5F80938839809129
:101DD0008839843050F3E8E9F9E380819181A28168
:101DE000B3818093943990939539A0939639B093A9
:101DF000973984E0DF011D928A95E9F710928839BE
:101E0000809188398430B0F4C091883980918839C4
:101E100090E043960E947401EC2FF0E0E856F64CF7
:101E20008083809188398F5F809388398091883949
:101E3000843050F3E8E9F9E380819181A281B38194
:101E40008093333A9093343AA093353AB093363A2C
:101E500084E0DF011D928A95E9F71092883980911C
:101E600088398430B0F4C09188398091883990E005
:101E700047960E947401EC2FF0E0E856F64C808300
:101E8000809188398F5F8093883980918839843038
:101E900050F3E8E9F9E380819181A281B3818093D5
:101EA0003D3A90933E3AA0933F3AB093403A84E053
:101EB000DF011D928A95E9F710928839809188395F
:101EC0008430B0F4C09188398091883990E04B9685
:101ED0000E947401EC2FF0E0E856F64C808380916C
:101EE00088398F5F8093883980918839843050F3A6
:101EF0008091983990919939A0919A39B0919B39F4
:101F000080937A3A90937B3AA0937C3AB0937D3A4F
:101F1000DF91CF911F910F91089510924701E1E455
:101F2000F1E0808182FDFDCF80E090E880934A015E
:101F300090934B01E0E4F1E081E0828380830E9492
:101F40000A0E813039F061E080E090E00E947E016D
:101F50000E94600D0E940F0E8091583A0E94B712A5
:101F60000E94B5100E94D3107894C1E0D0E00E9486
:101F7000620480910E388823D1F310920E3880913C
:101F80007E3990917F394E9744F010927E391092AD
:101F90007F39C0937839D093793920917C39309149
:101FA0007D3980917E3990917F392817390744F423
:101FB00080917E3990917F3980937C3990937D39DF
:101FC00089E59AE30E94F91068E37AE38DE59AE3E4
:101FD0000E944D11C090593AD0905A3AE0905B3A25
:101FE000F0905C3A20E030E040E252ECC701B601EC
:101FF0000E94411588230CF4BACF20E030E04AEF6C
:1020000052E4C701B6010E94181418160CF4AFCFA1
:102010008090383A9090393AA0903A3AB0903B3A52
:1020200020E030E040E252ECC501B4010E944115CD
:1020300088230CF49CCF20E030E04AEF52E4C50145
:10204000B4010E94181418160CF491CF40905D3A18
:1020500050905E3A60905F3A7090603A20E030E0D5
:10206000A901C301B2010E94411588230CF47FCF5E
:1020700020E030E048EC52E4C301B2010E941814A1
:1020800018160CF474CFE0917E39F0917F39EE0F81
:10209000FF1FEE0FFF1FE050F74CC082D182E2829B
:1020A000F382E0917E39F0917F39EE0FFF1FEE0F42
:1020B000FF1FE857F74C4082518262827382E091A1
:1020C0007E39F0917F39EE0FFF1FEE0FFF1FE05FAB
:1020D000F74C80829182A282B38280917E39909166
:1020E0007F39019680937E3990937F3940CF1F923C
:1020F0000F920FB60F9211242F933F934F935F933C
:102100006F937F938F939F93AF93BF93EF93FF93BF
:102110008EE89AE30E949E12FF91EF91BF91AF91DA
:102120009F918F917F916F915F914F913F912F91EF
:102130000F900FBE0F901F901895CF93DF931F92B3
:10214000CDB7DEB7E1E0F2E08081806180838BE093
:102150008983298140EC60E178E08EE89AE30E946F
:10216000C4110F90DF91CF9108950E949D100895A2
:1021700061157105B1F0FC01680F791F8FEF91E3D4
:102180002191822728E030E088231CF4880F8927DA
:1021900001C0880F21503109B9F7E617F70781F719
:1021A00008958FEF0895EFE1FAE381E2808380E301
:1021B000818322E0AF0164E48EE89AE30E941E125C
:1021C0002AE684E091E0215080409040E1F700C091
:1021D00022E04FE15AE36AE48EE89AE30E941E127D
:1021E0002AE684E091E0215080409040E1F700C071
:1021F0000895CF93DF93EC01EFE1FAE380EE808363
:10220000118222E0AF016AE48EE89AE30E941E1276
:1022100082EC92EA0197F1F700C043E06AE48EE8AD
:102220009AE30E9424128DE890E20197F1F70000F2
:1022300062E070E082EA9AE30E94B8109091A43ABA
:10224000891320C0EEE8FAE36489858970E0762F6F
:102250006627680F711D80E090E00E948F1420E0D7
:1022600030E04FE253E40E94461520E03FEF4FE795
:1022700057E40E941D1420E030E044E352E40E9441
:10228000AB1304C06CE57FEF89E794E4688379833E
:102290008A839B83DF91CF910895AF92BF92CF92B3
:1022A000DF92EF92FF920F931F93CF93DF938C01F6
:1022B0005B01EFE1FAE380EE8083118222E0AF015F
:1022C00064E48EE89AE30E941E128AE191E4019789
:1022D000F1F700C046E064E48EE89AE30E9424121D
:1022E000EDE8F0E23197F1F70000CEE8DAE36C892F
:1022F0008D8970E0762F6627680F711D80E090E071
:102300000E948F1420E030E04FE253E40E94461513
:1023100020E03FEF4FE757E40E941D146B017C0162
:102320006F89888D70E0762F6627680F711D80E0B9
:1023300090E00E948F1420E030E048EC52E40E94CC
:10234000461520E03FEF4FE757E40E941D14F801C7
:10235000608371838283938320E030E044E352E41E
:10236000C701B6010E94AB13F501608371838283BC
:102370009383DF91CF911F910F91FF90EF90DF90AA
:10238000CF90BF90AF900895FC016083718341604E
:10239000DB0113964C93A081B18116962C9301908A
:1023A000F081E02D81E0858308950F93CF93DF9333
:1023B000EC012231C0F50131C0F588A5811137C08B
:1023C00081E088A719A6660F6A832223A1F0E42F73
:1023D000F52F6FEF620F70E06F5F7F4F40E050E0CE
:1023E0009191DE01A40FB51F13969C934F5F5F4F31
:1023F00046175707A9F72CA30DA31EA21FA28CA155
:10240000882339F08A818E7FE881F981878381E092
:1024100011C08DA1882369F08A818160E881F981EA
:10242000878381E007C080E005C080E003C080E0D2
:1024300001C081E0DF91CF910F9108950F9300E0EB
:102440000E94D5110F9108950F93042F20E040E0D2
:1024500050E00E94D5110F910895FC01A081B18137
:1024600015969C91159792FF03C084E081A702C046
:1024700083E081A7986015969C9310A60895CF934A
:10248000DF93FC0194A125A1A081B18115968C91C7
:10249000159784FF07C083E014968C9385E081A78D
:1024A00010A61CC086A1891758F486A1EF01C80F99
:1024B000D11D8B8118968C9386A18F5F86A30EC049
:1024C00087A1821728F48281816017968C9306C0B9
:1024D00083E014968C9381E081A710A6DF91CF91C1
:1024E0000895FC0187A1803170F4A081B181189614
:1024F0008C9197A1DF01A90FB11D54968C9387A1F0
:102500008F5F87A308C0A081B18183E014968C936C
:1025100082E081A710A695A187A1891730F40190C8
:10252000F081E02D82E084830895A081B18187E06D
:1025300014968C9381E081A710A60895DC01ED919B
:10254000FC912581322F3C7019F00E942D120895C4
:1025500026FF03C00E943F12089522231CF40E940C
:102560007112089526E0FC0121A710A60895853078
:1025700071F028F48230B9F0843031F011C0863027
:1025800049F0873051F00CC020E03BE40EC020EB56
:1025900034E00BC020EC32E108C02CE231E005C091
:1025A0002CE231E002C020E835E2032E000C440B9F
:1025B000550B64E573E78BEC90E00E943019E0E284
:1025C000F4E0808184608083A4E2B4E08C91846034
:1025D0008C938081877F8083808181608083832F3B
:1025E000992787FD9A958093090820930808E5E0CC
:1025F000F8E080818160808380818068808380ECC6
:102600008093060883E080930708E4E0F8E0808187
:10261000806880830895E4E0F8E0908195FFFDCF25
:102620008093020808958A3010F4805D0895895CD3
:1026300008951F93CF93DF93182FEB0182958F702E
:102640000E9413138883812F8F700E941313898334
:10265000DF91CF911F910895FC01208190ED920FA1
:102660009A3020F4892F8295807F0AC08FEB820FE9
:10267000863028F42753822F8295807F01C080E026
:10268000918120ED290F2A3010F4820F08952FEB4D
:10269000290F263010F49753890F0895AF92BF92F7
:1026A000CF92DF92EF92FF920F931F93CF93DF931E
:1026B00000D0CDB7DEB74130510519F061112BC004
:1026C0003AC06623C9F08C016150262F30E02F5F9D
:1026D0003F4F7C01E20EF31EC12CD12C5801F801B2
:1026E00081918F010E940B13F5018081C80ED11CCE
:1026F000E016F10699F702C0C12CD12CBE016F5F24
:102700007F4F8C2D0E94191389810E940B138A819F
:102710000E940B1310C08C01615070E06F5F7F4FFF
:102720007C01E60EF71EF80181918F010E940B13C8
:102730000E151F05C1F78DE00E940B130F900F902F
:10274000DF91CF911F910F91FF90EF90DF90CF908D
:10275000BF90AF9008955058BB27AA270E94C3137B
:102760000C9407150E94F91438F00E94001520F00F
:1027700039F49F3F19F426F40C94F6140EF4E09506
:10278000E7FB0C94F014E92F0E94181558F3BA17C0
:10279000620773078407950720F079F4A6F50C9477
:1027A0003A150EF4E0950B2EBA2FA02D0B01B901AE
:1027B00090010C01CA01A0011124FF27591B99F0B7
:1027C000593F50F4503E68F11A16F040A22F232FC3
:1027D000342F4427585FF3CF469537952795A79513
:1027E000F0405395C9F77EF41F16BA0B620B730BBA
:1027F000840BBAF09150A1F0FF0FBB1F661F771F2B
:10280000881FC2F70EC0BA0F621F731F841F48F4DF
:10281000879577956795B795F7959E3F08F0B0CF68
:102820009395880F08F09927EE0F9795879508954F
:102830000E94CC1408F481E008950E9431140C9495
:1028400007150E94001558F00E94F91440F029F471
:102850005F3F29F00C94F01451110C943B150C942B
:10286000F6140E94181568F39923B1F3552391F3D8
:10287000951B550BBB27AA2762177307840738F0EF
:102880009F5F5F4F220F331F441FAA1FA9F335D04C
:102890000E2E3AF0E0E832D091505040E695001C00
:1028A000CAF72BD0FE2F29D0660F771F881FBB1FBA
:1028B000261737074807AB07B0E809F0BB0B802D98
:1028C000BF01FF2793585F4F3AF09E3F510578F0C4
:1028D0000C94F0140C943B155F3FE4F3983ED4F352
:1028E000869577956795B795F7959F5FC9F7880F98
:1028F000911D9695879597F90895E1E0660F771FEA
:10290000881FBB1F621773078407BA0720F0621B7A
:10291000730B840BBA0BEE1F88F7E0950895E894CB
:1029200009C097FB3EF490958095709561957F4F17
:102930008F4F9F4F9923A9F0F92F96E9BB279395C5
:10294000F695879577956795B795F111F8CFFAF4D5
:10295000BB0F11F460FF1BC06F5F7F4F8F4F9F4F06
:1029600016C0882311F096E911C0772321F09EE864
:10297000872F762F05C0662371F096E8862F70E0CA
:1029800060E02AF09A95660F771F881FDAF7880FA4
:102990009695879597F90895990F0008550FAA0BFA
:1029A000E0E8FEEF16161706E807F907C0F0121662
:1029B0001306E407F50798F0621B730B840B950B65
:1029C00039F40A2661F0232B242B252B21F40895BA
:1029D0000A2609F4A140A6958FEF811D811D089557
:1029E00097F99F6780E870E060E008959FEF80ECC2
:1029F000089500240A941616170618060906089565
:102A000000240A9412161306140605060895092ECA
:102A10000394000C11F4882352F0BB0F40F4BF2B39
:102A200011F460FF04C06F5F7F4F8F4F9F4F089579
:102A300057FD9058440F551F59F05F3F71F047956F
:102A4000880F97FB991F61F09F3F79F08795089554
:102A5000121613061406551FF2CF4695F1DF08C073
:102A6000161617061806991FF1CF86957105610590
:102A700008940895E894BB2766277727CB0197F938
:102A800008950E94CC1408F48FEF08950E94591500
:102A90000C9407150E94F91438F00E94001520F0DC
:102AA000952311F00C94F0140C94F61411240C944A
:102AB0003B150E94181570F3959FC1F3950F50E0D8
:102AC000551F629FF001729FBB27F00DB11D639FE0
:102AD000AA27F00DB11DAA1F649F6627B00DA11D86
:102AE000661F829F2227B00DA11D621F739FB00D2C
:102AF000A11D621F839FA00D611D221F749F33279C
:102B0000A00D611D231F849F600D211D822F762F34
:102B10006A2F11249F5750409AF0F1F088234AF011
:102B2000EE0FFF1FBB1F661F771F881F915050407D
:102B3000A9F79E3F510580F00C94F0140C943B15BE
:102B40005F3FE4F3983ED4F3869577956795B79504
:102B5000F795E7959F5FC1F7FE2B880F911D96951E
:102B6000879597F90895A0E1B0E0E9EBF5E10C94C1
:102B700052197C011B016A01FC01168217828381B4
:102B800081FF44C39E012F5F3F4F3901F7019381BD
:102B9000F10193FD859193FF81911F01882309F431
:102BA00031C3853239F493FD859193FF81911F01E3
:102BB000853239F4B70190E00E94821A560165010E
:102BC000E5CF10E0512C912CFFE1F915D8F08B32B4
:102BD00079F038F4803279F08332A1F4F92DF06184
:102BE0002EC08D3261F0803369F4292D21602DC013
:102BF000392D3260932E892D8460982E2AC0E92DBC
:102C0000E86015C097FC2DC020ED280F2A3088F40D
:102C100096FE06C03AE0139F200D1124122F19C012
:102C20008AE0589E200D1124522EE92DE0629E2E3E
:102C300010C08E3231F496FCE5C2F92DF0649F2E5F
:102C400008C08C3621F4292D2068922E02C08836C7
:102C500041F4F10193FD859193FF81911F01811151
:102C6000B3CF9BEB980F933020F4992D9061805E49
:102C700007C09BE9980F933008F066C1992D9F7E9D
:102C800096FF16E09F73992E853619F49064992E5D
:102C900008C0863621F4392F3068932E02C01111F6
:102CA000115097FE07C01C3350F444244394410E46
:102CB00027E00BC0183038F027E017E005C027E008
:102CC0009CE3492E02C0212F412C560184E0A80E1E
:102CD000B11CF6016081718182819381042DA30171
:102CE0000E9487196C01F981FC87F0FF02C0F3FF95
:102CF00006C091FC06C092FE06C000E205C00DE2CF
:102D000003C00BE201C000E08C858C7019F001114A
:102D10005AC29BC297FE10C04C0CFC85F4FF04C045
:102D20008A81813309F44A94141474F528E0241537
:102D300078F588E0482E2CC096FC2AC0812F90E0C0
:102D40008C159D059CF03CEFC3163FEFD30674F045
:102D5000892D8068982E0AC0E2E0F0E0EC0FFD1F9C
:102D6000E10FF11D8081803319F411501111F4CF5E
:102D700097FE0EC044244394410E812F90E0C81664
:102D8000D9062CF41C1904C04424439401C010E05B
:102D900097FE06C01C141D0434F4C601019605C03C
:102DA00085E090E002C081E090E0011101961123DE
:102DB00031F0212F30E02F5F3F4F820F931F252DE1
:102DC00030E08217930714F4581A01C0512C892D52
:102DD000897049F4552039F0B70180E290E00E94F3
:102DE000821A5A94F7CF002329F0B701802F90E080
:102DF0000E94821A93FC09C0552039F0B70180E384
:102E000090E00E94821A5A94F7CF97FE4CC0460178
:102E1000D7FE02C0812C912CC60188199909F301B3
:102E2000E80FF91FED87FE879601241931092F87D6
:102E3000388B012F10E01195019511093FEF831692
:102E4000930629F4B7018EE290E00E94821AC8141A
:102E5000D9044CF08F8598898815990524F4ED855F
:102E6000FE85818101C080E3F1E08F1A91082D85F4
:102E70003E852F5F3F4F2D873E87801691062CF0B1
:102E8000B70190E00E94821AD9CFC814D90441F446
:102E90009A81963320F4953319F43C8534FF81E30D
:102EA000B70190E04EC08A81813319F09C859F7EE6
:102EB0009C87B70190E00E94821A111105C094FC12
:102EC00018C085E690E017C0B7018EE290E00E943E
:102ED000821A1E5F82E001E0080FF301E80FF11D86
:102EE0008081B70190E00E94821A802F0113F3CFF6
:102EF000E6CF85E490E0B7010E94821AD7FC06C0B5
:102F0000C114D10441F4EC85E4FF05C0D194C1940F
:102F1000D1088DE201C08BE2B70190E00E94821AD5
:102F200080E32AE0C216D1042CF08F5FFAE0CF1ABA
:102F3000D108F7CFB70190E00E94821AB701C6010D
:102F4000C0960E94821A54C1833631F0833779F0DB
:102F5000833509F056C020C0560132E0A30EB11CE3
:102F6000F6018081898301E010E0630112C05601FF
:102F7000F2E0AF0EB11CF601C080D18096FE03C016
:102F8000612F70E002C06FEF7FEFC6010E94771AD9
:102F90008C01F92DFF7714C0560122E0A20EB11C5E
:102FA000F601C080D18096FE03C0612F70E002C0A0
:102FB0006FEF7FEFC6010E945F1A8C01F92DF06858
:102FC0009F2EF3FD1AC0852D90E008171907A8F46D
:102FD000B70180E290E00E94821A5A94F4CFF60181
:102FE00097FC859197FE81916F01B70190E00E9457
:102FF000821A51105A94015011090115110579F7DF
:10300000F7C0843611F0893661F5560197FE09C084
:1030100024E0A20EB11CF60160817181828193814E
:103020000AC0F2E0AF0EB11CF60160817181072E7B
:10303000000C880B990BF92DFF769F2E97FF09C086
:1030400090958095709561957F4F8F4F9F4FF06859
:103050009F2E2AE030E0A3010E94EE1AC82EC61867
:103060003FC0092D853721F40F7E2AE030E01DC0D6
:10307000097F8F3691F018F4883559F0C3C0803736
:1030800019F0883711F0BEC0006104FF09C0046068
:1030900007C094FE08C0066006C028E030E005C006
:1030A00020E130E002C020E132E0560107FF09C014
:1030B00084E0A80EB11CF601608171818281938148
:1030C00008C0F2E0AF0EB11CF6016081718180E0B2
:1030D00090E0A3010E94EE1AC82EC6180F77902E1A
:1030E00096FE0BC0092D0E7FC11650F494FE0AC047
:1030F00092FC08C0092D0E7E05C0DC2C092D03C0F2
:10310000DC2C01C0D12E04FF0DC0FE01EC0DF11D21
:103110008081803311F4097E09C002FF06C0D39478
:10312000D39404C0802F867809F0D39403FD11C096
:1031300000FF06C01C2DD51480F4150D1D190DC0FF
:10314000D51458F4B70180E290E00E94821AD3941B
:10315000F7CFD51410F45D1801C0512C04FF10C036
:10316000B70180E390E00E94821A02FF17C001FDC0
:1031700003C088E790E002C088E590E0B7010CC08A
:10318000802F867859F001FF02C08BE201C080E2F7
:1031900007FD8DE2B70190E00E94821AC11638F453
:1031A000B70180E390E00E94821A1150F7CFCA94D1
:1031B000F301EC0DF11D8081B70190E00E94821AAD
:1031C000C110F5CF15C0F4E0F51560F584E0581A8C
:1031D00093FE1FC0011127C02C8523FF2AC00CE7D6
:1031E00010E0392D3071932EF8018491811124C0A3
:1031F000552009F4E4CCB70180E290E00E94821AE5
:103200005A94F6CFF7018681978126C08FEF9FEF02
:1032100023C0B70180E290E00E94821A5A945110B4
:10322000F8CFD8CF512CB701802F90E00E94821A9E
:10323000D3CF00E810E0D5CF91108052B70190E0D5
:103240000E94821A0F5F1F4FCFCF23E0251510F485
:1032500083E0BDCF512CC0CF6096E2E10C946B1996
:10326000A1E21A2EAA1BBB1BFD010DC0AA1FBB1F8A
:10327000EE1FFF1FA217B307E407F50720F0A21BFC
:10328000B30BE40BF50B661F771F881F991F1A9469
:1032900069F760957095809590959B01AC01BD0193
:1032A000CF0108952F923F924F925F926F927F923B
:1032B0008F929F92AF92BF92CF92DF92EF92FF9246
:1032C0000F931F93CF93DF93CDB7DEB7CA1BDB0BF2
:1032D000CDBFDEBF09942A88398848885F846E8410
:1032E0007D848C849B84AA84B984C884DF80EE802A
:1032F000FD800C811B81AA81B981CE0FD11DCDBF6C
:10330000DEBFED010895662777270C944C1B28300B
:1033100008F027E03327DA01990F311D87FD91600E
:1033200000966105710539F432602E5F3D9330E3FC
:103330002A95E1F708959F3F30F0803871056105C7
:1033400009F03C5F3C5F3D93913008F08068911D2F
:10335000DF93CF931F930F93FF92EF92192F987FD4
:103360009695E92F96959695E90FFF27E252FF4F24
:1033700099273327EE24FF24A701E701059008943D
:10338000079428F4360FE71EF81E491F511D660FDB
:10339000771F881F991F0694A1F70590079428F4BA
:1033A000E70EF81E491F561FC11D770F881F991F72
:1033B000661F0694A1F70590079428F4F80E491F9C
:1033C000561FC71FD11D880F991F661F771F0694B0
:1033D000A1F70590079420F4490F561FC71FD81F67
:1033E000990F661F771F881F0694A9F7849110957F
:1033F000177041F0D695C79557954795F794E79480
:103400001A95C1F7E4E8F0E06894159015913591AC
:103410006591959105907FE27395E118F10A430B50
:10342000560BC90BD009C0F7E10CF11E431F561F04
:10343000C91FD01D7EF4703311F48A95E6CFE8944D
:10344000015030F0080F0AF40027021708F4202F6B
:103450002395022F7A3328F079E37D932A95E9F7B3
:1034600010C07D932A9589F60694979567953795B0
:1034700017951794E118F10A430B560BC90BD009A5
:1034800098F023957E9173957A3308F070E37C93DE
:103490002013B8F77E9170617D9330F0839571E3CE
:1034A0007D9370E32A95E1F71124EF90FF900F913F
:1034B0001F91CF91DF91992787FD90950895FC0189
:1034C0000590615070400110D8F7809590958E0F4F
:1034D0009F1F0895FB01DC0104C08D9101908019AC
:1034E00021F441505040C8F7881B990B0895FC0106
:1034F0006150704001900110D8F7809590958E0F23
:103500009F1F08950F931F93CF93DF93FB01238198
:1035100021FD03C08FEF9FEF2CC022FF16C0468114
:103520005781248135814217530744F4A081B1812A
:103530009D012F5F3F4F208331838C9326813781FC
:103540002F5F3F4F2683378314C08B01EC01FB01B3
:103550000084F185E02D0995892BE1F6D8011696B6
:103560008D919C911797019616968D939C93179722
:10357000CE01DF91CF911F910F910895AEE0B0E0A1
:10358000E4ECFAE10C9460190D891E898F89988DFD
:1035900026E02C8309831A8397FF02C080E090E81D
:1035A00001978D839E83AE01455E5F4F698D7A8D55
:1035B000CE0101960E94B3154D815E8157FD0AC070
:1035C0002F813885421753070CF49A01F801E20F56
:1035D000F31F10822E96E4E00C947919FA01AA27C1
:1035E000283051F1203181F1E8946F936E7F6E5F46
:1035F0007F4F8F4F9F4FAF4FB1E03ED0B4E03CD0F4
:10360000670F781F891F9A1FA11D680F791F8A1FD6
:10361000911DA11D6A0F711D811D911DA11D20D03D
:1036200009F468943F912AE0269F11243019305DF7
:103630003193DEF6CF010895462F4770405D4193E8
:10364000B3E00FD0C9F7F6CF462F4F70405D4A3335
:1036500018F0495D31FD4052419302D0A9F7EACFFD
:10366000B4E0A6959795879577956795BA95C9F72C
:1036700000976105710508959B01AC010A2E06941F
:103680005795479537952795BA95C9F7620F731FD8
:10369000841F951FA01D0895A0E0B0E0E2E5FBE1C6
:1036A0000C945819EC016B016115710519F0FB01BF
:1036B000808391837E01FFEFEF1AFF0A0881802F3C
:1036C00090E00E949A1C892B11F0E701F3CF0D3294
:1036D00039F47E0182E0E80EF11C098111E008C096
:1036E0000B3229F47E0192E0E90EF11C098110E011
:1036F000E701219743E050E066E871E0CE010E94C7
:10370000A31C892BC1F4239645E050E061E871E0E9
:10371000CE010E94A31C892B09F42596C114D10463
:1037200019F0F601C083D1831111F6C060E070E09A
:1037300080E89FE7FAC043E050E06EE771E0CE0119
:103740000E94A31C892B59F4C114D10409F4E9C0C7
:10375000F2E0EF0EF11CF601E082F182E2C020E01F
:1037600030E0A901C0E0D0E0F70180EDA82EA00E66
:1037700089E08A1530F1912F9260B92E812F8870DF
:1037800012FF04C0811124C0219622C0811121970B
:10379000A5E0B0E00E94BE1CDC01CB01880F991FA0
:1037A000AA1FBB1F9C01AD012A0D311D411D511DDA
:1037B000283989E93807480789E1580748F0166031
:1037C00006C09EEFA9120AC013FD40C01860B12EBA
:1037D0008FEFE81AF80A00811B2DC6CF802F8F7D4E
:1037E0008534A1F580818D3211F4106106C08B32D1
:1037F00021F0319661E070E004C08181329662E090
:1038000070E080538A3018F0E61BF70B1FC060E0B1
:1038100070E060389CE079075CF4DB01AA0FBB1F05
:10382000AA0FBB1F6A0F7B1F660F771F680F711DE2
:103830003196DF0111978C9180538A3050F314FF39
:1038400003C0719561957109C60FD71F11FF08C09C
:10385000C114D10429F0CF010197F601808391832F
:10386000CA01B9010E948F14212F2370233019F04F
:103870004B015C0106C04B015C01B7FAB094B7F88C
:10388000B09420E030E0A901C501B4010E941814F1
:10389000882309F43EC0D7FF06C0D195C195D10950
:1038A0000DE911E002C005EB11E06801F8E1CF1A63
:1038B000D10890E2E92EF12CCE15DF0574F0F80165
:1038C0002591359145915491C501B4010E94461549
:1038D0004B015C01CE19DF09EFCF04501109F594BB
:1038E000E7940C151D0541F78A2D880F8B2D881F35
:1038F0008F3F49F020E030E0A901C501B4010E94EA
:103900001814811106C082E290E08093B83A909337
:10391000B93AC501B40109C060E070E080E89FEFEA
:1039200004C060E070E080EC9FE7CDB7DEB7ECE06C
:103930000C94711991110C94BB1C803219F08950B0
:103940008550C8F70895FB01DC014150504088F0D4
:103950008D9181341CF08B350CF4805E659161345F
:103960001CF06B350CF4605E861B611171F3990BD2
:103970000895881BFCCF9927882708950E94C91CA9
:10398000A59F900DB49F900DA49F800D911D1124B3
:103990000895A29FB001B39FC001A39F700D811D28
:1039A0001124911DB29F700D811D1124911D089548
:0439B000F894FFCFB9
:1039B400252B30392E326600252B3031322E3445FA
:1039C400003939393939390030384130313200342D
:1039D40031303230303330005244005745005243C6
:1039E400414C005743414C005253524E0052530035
:0339F40053550028
:1039F700DCB9DFB9E2B9E7B9ECB9F1B9F4B901005B
:00000001FF
