S019000052485F54454D505F53454E534F525F56302E73726563BE
S11300000C94DD000C94FA000C94FA000C94FA00A1
S11300100C94FA000C94FA000C94FA000C94FA0074
S11300200C94FA000C94FA000C94FA000C94FA0064
S11300300C94FA000C94FA000C94FA000C94FA0054
S11300400C94FA000C94FA000C94FA000C94FA0044
S11300500C94FA000C94FA000C94FA000C94FA0034
S11300600C94FA000C945D0F0C94FA000C94FA00B2
S11300700C94FA000C94FA000C94FA006E616E0071
S1130080696E660000407A10F35A00A0724E180997
S11300900010A5D4E80000E87648170000E40B54EB
S11300A0020000CA9A3B000000E1F50500008096BA
S11300B09800000040420F000000A08601000000EC
S11300C0102700000000E8030000000064000000A6
S11300D000000A00000000000100000000002C766F
S11300E0D888DC674F0823DFC1DFAE59E1B1B7968A
S11300F0E5E3E453C63AE651997696E8E6C28426E7
S1130100EB898C9B62ED407C6FFCEFBC9C9F40F2C2
S1130110BAA56FA5F490055A2AF75C936B6CF9673E
S11301206DC11BFCE0E40D47FEF520E6B500D0ED03
S1130130902E0300943577050080841E080000206B
S11301404E0A000000C80C333333330F986E128309
S11301501141EF8D2114893BE65516CFFEE6DB18DD
S1130160D1844B381BF77C1D901DA4BBE4242032A2
S113017084725E228100C9F124ECA1E53D274E4141
S11301804E494E495459494E46CDCCCC3D0AD7230D
S11301903C17B7D13877CC2B329595E6241FB14F55
S11301A00A000020410000C84200401C4620BCBE9A
S11301B04CCA1B0E5AAEC59D740011241FBECFEF4E
S11301C0CDBFDFE3DEBF18E3A0E0B8E3E9E6F5E383
S11301D002C005900D92AE30B107D9F728E3AEE026
S11301E0B8E301C01D92A83FB207E1F70E942A0FAD
S11301F00C94921A0C9400009C01E0E0F0E19281CE
S113020091FDFDCFF901FC5E808108959C01E0E041
S1130210F0E1928191FDFDCFF901FC5E60838DE9EF
S113022084BF83E0809300100895CF93DF931F92DF
S1130230CDB7DEB7E1E0F2E08081806180838BE0BE
S11302408983298140EC60E178E08CEC98E30E949A
S1130250830F78940F90DF91CF9108954F925F921E
S11302606F927F928F929F92AF92BF92CF92DF92C2
S1130270EF92FF920F931F93CF93DF935C014B0197
S1130280E3E8F8E38CE2808386E0818322E0AF0137
S113029064E48CEC98E30E94DD0F8AE191E4019719
S11302A0F1F700C046E064E48CEC98E30E94E30FAD
S11302B0EDE8F0E23197F1F7000003E010E0C12C23
S11302C0D12C76012601370122E043E858E364E4A7
S11302D08CEC98E30E94DD0F8AE191E40197F1F739
S11302E000C046E064E48CEC98E30E94E30FEDE880
S11302F0F0E23197F1F70000CCECD8E36C898D89FA
S113030070E0762F6627680F711D80E090E00E94F0
S11303104E1220E030E04FE253E40E94001320E04C
S11303203FEF4FE757E40E94DC1120E030E044E364
S113033052E40E946A119B01AC01C301B2010E9404
S11303406B112B013C016F89888D70E0762F662735
S1130350680F711D80E090E00E944E1220E030E0B2
S113036048EC52E40E94001320E03FEF4FE757E4CB
S11303700E94DC119B01AC01C701B6010E946B1104
S11303806B017C010150110909F09ECF20E030E09F
S113039040E450E4C301B2010E94DC11F501608322
S11303A071838283938320E030E040E450E4C7010A
S11303B0B6010E94DC11F40160837183828393830C
S11303C0DF91CF911F910F91FF90EF90DF90CF902D
S11303D0BF90AF909F908F907F906F905F904F9061
S11303E00895CF92DF92EF92FF920F931F93CF93D2
S11303F0DF938C01E3E8F8E38CE2808386E0818379
S113040022E0AF016AE48CEC98E30E94DD0F8AE1FC
S113041091E40197F1F700C043E06AE48CEC98E3BF
S11304200E94E30FEDE8F0E23197F1F70000C3E03A
S1130430D0E0C12CD12C760122E043E858E36AE4F1
S11304408CEC98E30E94DD0F8AE191E40197F1F7C7
S113045000C043E06AE48CEC98E30E94E30FEDE80B
S1130460F0E23197F1F70000ECECF8E36489858958
S113047070E0762F6627680F711D80E090E00E947F
S11304804E1220E030E04FE253E40E94001320E0DB
S11304903FEF4FE757E40E94DC1120E030E044E3F3
S11304A052E40E946A119B01AC01C701B6010E948B
S11304B06B116B017C01219709F0BECF20E030E085
S11304C040E450E40E94DC11F8016083718382836C
S11304D09383DF91CF911F910F91FF90EF90DF9065
S11304E0CF900895209117382150209317381092F7
S11304F01F3830911738209117389F938F937F932B
S11305006F9388E295EB9F938F9380E490E0831B35
S113051091099F938F93822F90E0885C974C9F93CF
S11305208F930E94781880930F389093103890918D
S11305301738890F809317388091173890E080938B
S113054011389093123881E090E08093133890939F
S113055014388DB79EB70A968DBF9EBF08958F92AB
S11305609F92AF92BF92CF92DF92EF92FF920F933E
S11305701F93CF93DF93B22EA32E942E852E20911A
S1130580173821502093173810921F38309117389C
S1130590209117389F938F937F936F930F2EF0E3DF
S11305A0CF2EF5EBDF2EF02DDF92CF92C0E4D0E01A
S11305B0CE01831B91099F938F93822F90E0885CD7
S11305C0974C9F938F930E94781880930F38909341
S11305D0103890911738890F8093173890911738F5
S11305E0809117388F929F92AF92BF92DF92CF92F1
S11305F09E01291B31093F932F9390E0885C974C0F
S11306009F938F930E94781880930F38909310389B
S113061090911738890F80931738909117388091EB
S113062017381F930F93FF92EF92DF92CF92C91B5B
S1130630D109DF93CF9390E0885C974C9F938F937D
S11306400E94781880930F3890931038909117383F
S1130650890F809317388091173890E08093113870
S11306609093123881E090E080931338909314387B
S11306708DB79EB74E968DBF9EBFDF91CF911F91D0
S11306800F91FF90EF90DF90CF90BF90AF909F902D
S11306908F900895CF92DF92EF92FF920F931F9362
S11306A0CF93DF9304E318E37801C7E0D0E00F2E83
S11306B0F9E9CF2EF8E3DF2EF02DF6018081918148
S11306C0A281B3818093343890933538A09336381F
S11306D0B0933738F70161917F01CE010E94060182
S11306E02196CB30D10549F70F2EF4E3EF2EF8E332
S11306F0FF2EF02D0F2EFAEACF2EF8E3DF2EF02D89
S1130700F60180819181A281B381809334389093E2
S11307103538A0933638B0933738F70161917F01AB
S1130720CE010E9406012196CF30D10549F70F2E44
S1130730F0E3EF2EF8E3FF2EF02DF7018081918195
S1130740A281B3818093343890933538A09336389E
S1130750B0933738F80161918F01CE010E940601F0
S11307602196C331D10549F7DF91CF911F910F91A4
S1130770FF90EF90DF90CF900895CF92DF92EF92A9
S1130780FF920F931F93CF93DF9304E318E3780151
S1130790C3E1D0E00F2EFFE7CF2EF8E3DF2EF02DDC
S11307A0F60180819181A281B38180933438909342
S11307B03538A0933638B0933738F70161917F010B
S11307C0CE010E9406012196C731D10549F70F2EAB
S11307D0F4E3EF2EF8E3FF2EF02D0F2EF5E9CF2EE4
S11307E0F8E3DF2EF02DF60180819181A281B3819F
S11307F08093343890933538A0933638B093373893
S1130800F70161917F01CE010E9406012196CB314F
S1130810D10549F70F2EF8ECEF2EF8E3FF2EF02D5B
S1130820F70180819181A281B381809334389093C0
S11308303538A0933638B0933738F80161918F0179
S1130840CE010E9406012196CF31D10549F7DF91EF
S1130850CF911F910F91FF90EF90DF90CF9008956B
S11308608F929F92AF92BF92CF92DF92EF92FF92BC
S11308700F931F93CF93DF938332B9F4909117387A
S1130880911113C081E08093173880E4E8E3F8E322
S1130890DF011D928A95E9F7E0911738F0E0E95CF1
S11308A0F74C83E280830C94190D909117389923A7
S11308B009F4D3C6E0911738F0E0E85CF74C808384
S11308C0909117389F5F9093173890911738903410
S11308D030F010921E38109217380C94190D8D3088
S11308E011F00C94190D809139389091AF38891317
S11308F022C081E080931E3880931D3880913A385D
S1130900813631F482E080931E3880931D3885C08F
S11309108E3639F483E080931E3882E080931D384C
S11309207CC08D3609F079C084E080931E3882E063
S113093080931D3872C090919338891307C085E065
S113094080931E3881E080931D3867C0909194385D
S1130950891307C086E080931E3881E080931D3898
S11309605CC046E050E069E375EB89E398E30E94DC
S11309702418892B19F587E080931E3886E080932C
S11309801D3880913F38813639F488E080931E38D1
S113099087E080931D3841C08E3639F489E0809316
S11309A01E3887E080931D3838C08D36B1F58AE053
S11309B080931E3887E080931D382FC046E050E0B6
S11309C063EA78E389E398E30E942418892B19F5F4
S11309D08BE080931E3886E080931D3880913F38E9
S11309E0813639F48CE080931E3887E080931D387B
S11309F014C08E3639F48DE080931E3887E08093DE
S1130A001D380BC08D3649F48EE080931E3887E084
S1130A1080931D3802C010921E388AE280933838C1
S1130A20C0911E38C23009F41BC7C53029F08C2F81
S1130A308B7F883009F066C060910038709101386E
S1130A40FB0101900020E9F73197AF01461B570BDA
S1130A50D0911D388D2F90E0875C974C0E9424180C
S1130A60892B09F04FC02091173830E08D2F90E08A
S1130A7004962817390709F045C08BE798E30E94CC
S1130A80F101C0907B38D0907C38E0907D38F090B4
S1130A907E382091AA383091AB384091AC385091CF
S1130AA0AD38C701B6010E940013209199383091E6
S1130AB09A3840919B3850919C380E946B114B019D
S1130AC05C01209130383091313840913238509166
S1130AD03338C701B6010E940013A70196010E9492
S1130AE000139B01AC01C501B4010E946B1160931A
S1130AF07B3870937C3880937D3890937E380E9445
S1130B0072025DC5C33009F4C3C6C63029F08C2F08
S1130B108B7F893009F068C060910038709101388A
S1130B20FB0101900020E9F73197AF01461B570BF9
S1130B30D0911D388D2F90E0875C974C0E9424182B
S1130B40892B09F051C02091173830E08D2F90E0A7
S1130B5004962817390709F047C064EC78E38BE75B
S1130B6098E30E942E01C090C438D090C538E0901C
S1130B70C638F090C7382091953830919638409116
S1130B80973850919838C701B6010E9400132091FC
S1130B907F383091803840918138509182380E945A
S1130BA06B114B015C012091C8383091C9384091D8
S1130BB0CA385091CB38C701B6010E940013A7016F
S1130BC096010E9400139B01AC01C501B4010E946F
S1130BD06B116093C4387093C5388093C638909372
S1130BE0C7380E947202EBC4C43009F469C68C2F62
S1130BF08B7F8A3081F56091003870910138FB0158
S1130C0001900020E9F73197AF01461B570BD091B3
S1130C101D388D2F90E0875C974C0E942418892BF7
S1130C20D1F42091173830E08D2F90E004962817E6
S1130C30390789F464EC78E38BE798E30E942E018A
S1130C4060917B3870917C3880917D3890917E38AA
S1130C500E947202B4C4C13009F404C5C73019F04B
S1130C60CB3009F017C56091003870910138FB0151
S1130C7001900020E9F73197AF01461B570BD09143
S1130C801D388D2F90E0875C974C0E942418892B87
S1130C9081F42091173830E08D2F90E004962817C6
S1130CA0390739F463E87FE483EC97E40E94720225
S1130CB086C48FEF8C0F833060F0C73009F423C6ED
S1130CC088EF8C0F823028F085EF8C0F833008F08A
S1130CD0E7C46091023870910338FB010190002051
S1130CE0E9F73197AF01461B570BD0911D380D2FF3
S1130CF010E0075C174CC8010E942418892BA9F442
S1130D002091173830E08D2F90E00496281739078A
S1130D1061F481E080931F388091173890E0019747
S1130D20809311389093123851C4C23009F4BCC472
S1130D308C2F8B7F8830D1F5609104387091053801
S1130D40FB0101900020E9F73197AF01461B570BD7
S1130D50D0911D388D2F90E0875C974C0E94241809
S1130D60892B21F52091173830E08D2F90E00696DD
S1130D7028173907D9F4E0903038F09031380091D1
S1130D803238109133382091AA383091AB384091E1
S1130D90AC385091AD386091993870919A388091FF
S1130DA09B3890919C380E94AF0209C4C33009F467
S1130DB08EC48C2F8B7F8930D9F560910438709163
S1130DC00538FB0101900020E9F73197AF01461B7C
S1130DD0570BD0911D388D2F90E0875C974C0E9463
S1130DE02418892B09F0BEC52091173830E08D2FC7
S1130DF090E0069628173907D9F4E090C838F090A7
S1130E00C9380091CA381091CB3820919538309167
S1130E109638409197385091983860917F38709106
S1130E20803880918138909182380E94AF02C7C384
S1130E30C23029F08C2F8B7F883009F09CC06091E0
S1130E40063870910738FB0101900020E9F73197CB
S1130E50AF01461B570BD0911D380D2F10E0C80170
S1130E60875C974C0E942418892B09F084C0209138
S1130E70173830E0C8018A962817390709F07BC073
S1130E8080911F38813009F076C0C0EBD8E30F2E73
S1130E90F4E1FF2EF02DFE012F2D11922A95E9F792
S1130EA0F801E35CF74C8CE0DE0101900D928A9529
S1130EB0E1F7CE010E943D176093993870939A38F8
S1130EC080939B3890939C38DE01EF2D1D92EA9518
S1130ED0E9F7E0911D38F0E0E75BF74C8CE0DE01C8
S1130EE001900D928A95E1F7CE010E943D1760931F
S1130EF0AA387093AB388093AC389093AD38DE0148
S1130F001D92FA94E9F7E0911D38F0E0EB5AF74CA2
S1130F108CE0DE0101900D928A95E1F7CE010E94EA
S1130F203D17609330387093313880933238909302
S1130F303338809117388452809317380E944A03BB
S1130F40E0903038F09031380091323810913338D5
S1130F502091AA383091AB384091AC385091AD38DB
S1130F606091993870919A3880919B3890919C380F
S1130F700E94AF0224C3C33009F4F8C48C2F8B7FC2
S1130F80893009F09DC06091063870910738FB01E3
S1130F9001900020E9F73197AF01461B570BD09120
S1130FA01D380D2F10E0C801875C974C0E9424184F
S1130FB0892B09F085C02091173830E08D2F90E0FF
S1130FC08A962817390709F07BC080911F38813031
S1130FD009F076C0C0EBD8E30F2EF4E1FF2EF02D1C
S1130FE0FE012F2D11922A95E9F7F801E35CF74CE5
S1130FF08CE0DE0101900D928A95E1F7CE010E940A
S11310003D1760937F387093803880938138909334
S11310108238DE01EF2D1D92EA95E9F7E0911D3843
S1131020F0E0E75BF74C8CE0DE0101900D928A95CD
S1131030E1F7CE010E943D1760939538709396387E
S11310408093973890939838DE011D92FA94E9F7CB
S1131050E0911D38F0E0EB5AF74C8CE0DE01019092
S11310600D928A95E1F7CE010E943D176093C8382E
S11310707093C9388093CA389093CB3880911738CD
S11310808452809317380E94BD03E090C838F090D2
S1131090C9380091CA381091CB38209195383091D5
S11310A09638409197385091983860917F38709174
S11310B0803880918138909182380E94AF027FC23B
S11310C0C13009F41CC3C73019F0CB3009F0A0C0FB
S11310D06091083870910938FB0101900020E9F70C
S11310E03197AF01461B570BD0911D388D2F90E0DF
S11310F0875C974C0E942418892B09F450C42BC098
S11311002091173830E08D2F90E006962817390784
S113111001F58091173881508093173810921F3849
S1131120A0911738B0E0A85CB74C86E0E3EAF8E396
S113113001900D928A95E1F7809117388A5F809328
S113114017388091173890E08093113890931238B3
S11311503DC2C13029F0C73019F0CB3009F058C076
S113116060910A3870910B38FB0101900020E9F777
S11311703197AF01461B570BD0911D388D2F90E04E
S1131180875C974C0E942418892B09F041C0209158
S1131190173830E08D2F90E0049628173907C1F5F1
S11311A08091173881508093173810921F3869E75F
S11311B078E38091AF380E94D810E0911738F0E0BE
S11311C0E85CF74CC9E7D8E38881998180839183EF
S11311D0809117388E5F80931738BE018091AE38A6
S11311E00E94D810E0911738F0E0E85CF74C888151
S11311F0998180839183809117388E5F809317380B
S11312008091173890E08093113890931238DEC1A2
S1131210C23009F48CC2C53029F08C2F8B7F883002
S113122009F045C060910A3870910B38FB010190B8
S11312300020E9F73197AF01461B570BD0911D38B9
S11312408D2F90E0875C974C0E942418892B09F01D
S1131250B1C32091173830E08D2F90E00496281701
S1131260390729F5809117388150809317381092E7
S11312701F3869E778E3809193380E94D810E09191
S11312801738F0E0E85CF74C8091793890917A381F
S113129080839183809117388E5F80931738809173
S11312A0173890E080931138909312388FC1C3306F
S11312B009F455C2C63009F49AC2C93009F47FC290
S11312C0CD3031F564C2809117388150809317383E
S11312D010921F3869E778E3809194380E94D810FF
S11312E0E0911738F0E0E85CF74C80917938909100
S11312F07A3880839183809117388E5F8093173872
S11313008091173890E080931138909312385EC121
S1131310C13009F484C2C73009F45BC3CB3009F08F
S113132082C060910C3870910D38FB01019000204F
S1131330E9F73197AF01461B570BD0911D380D2F9C
S113134010E0C801875C974C0E942418892B09F08F
S11313506AC02091173830E08D2F90E0049628174A
S113136039070CF460C080911F38813009F05BC0EC
S11313708091173881508093173810921F38F801E4
S1131380E55CF74C808191818093793890937A3829
S113139089E798E30E94EB1080937838E0911D3838
S11313A0F0E0E35CF74C80819181809379389093ED
S11313B07A3889E798E30E94EB108093A938C091AA
S11313C07838C132B8F020E030E04CEF52E460915C
S11313D07B3870917C3880917D3890917E380E9462
S11313E0D71118163CF0C093AF386C2F87E290E009
S11313F00E9406016091A938623021F08CEF860FBB
S1131400843048F46093AE3888E290E00E9406018C
S113141081E080930E388091173890E080931138E2
S113142090931238D3C0C23039F0C53029F08C2FD4
S11314308B7F883009F05EC060910C3870910D3854
S1131440FB0101900020E9F73197AF01461B570BD0
S1131450D0911D380D2F10E0C801875C974C0E9475
S11314602418892B09F0F4C12091173830E0C80101
S11314700496281739070CF4EFC180911F38813086
S113148009F0EAC18091173881508093173810927F
S11314901F38F801E55CF74C80819181809379389D
S11314A090937A3889E798E30E94EB10C82F8093D1
S11314B078388132B8F020E030E04CEF52E46091AB
S11314C07B3870917C3880917D3890917E380E9471
S11314D0D71118163CF0C09393386C2F85E290E036
S11314E00E9406018091173890E080931138909300
S11314F012386CC0C33031F0C63021F0CB7FC93014
S113150009F05DC060910C3870910D38FB010190B9
S11315100020E9F73197AF01461B570BD0911D38D6
S11315200D2F10E0C801875C974C0E942418892B6A
S113153009F045C02091173830E08D2F90E00496D3
S113154028173907E4F180911F388130C1F5809163
S1131550173881508093173810921F38F801E55CD2
S1131560F74C808191818093793890937A3889E718
S113157098E30E94EB10C82F809378388132B8F03A
S113158020E030E04CEF52E460917B3870917C387D
S113159080917D3890917E380E94D71118163CF0C6
S11315A0C09394386C2F86E290E00E9406018091EB
S11315B0173890E0809311389093123807C08091C7
S11315C0133890911438019709F042C010921338DF
S11315D0109214388091193890911A380097E1F0DC
S11315E0109215382091153830E028173907A4F4E3
S11315F0E2E6F3E03197F1F700C0809115388F5F90
S1131600809315388091153890E0209119383091E5
S11316101A388217930764F340911B3850911C3891
S11316206091113888E398E30E940D1180910E387F
S1131630882371F0FAE22CE28AE0F15020408040E5
S1131640E1F7000010920E388091AE380E947610B7
S113165010921E3810921738ECC110921E38109256
S11316601738E7C16091003870910138FB0101908F
S11316700020E9F73197AF01461B570BD0911D3875
S11316808D2F90E0875C974C0E942418892B09F4D5
S11316902FC139C18FEF8C0F833008F011CB19CBD8
S11316A0C23009F083CB48CB60910438709105387F
S11316B0FB0101900020E9F73197AF01461B570B5E
S11316C0C8010E942418892B09F436C1B8CB609153
S11316D0043870910538FB0101900020E9F7319737
S11316E0AF01461B570BD0911D388D2F90E0875CBE
S11316F0974C0E942418892B09F429C137C16091A1
S1131700083870910938FB0101900020E9F73197FE
S1131710AF01461B570BD0911D388D2F90E0875C8D
S1131720974C0E942418892B09F4EACC19CD6091B6
S11317300A3870910B38FB0101900020E9F73197CA
S1131740AF01461B570BD0911D388D2F90E0875C5D
S1131750974C0E942418892B09F06ECE7ACD6091A3
S11317600A3870910B38FB0101900020E9F731979A
S1131770AF01461B570BD0911D388D2F90E0875C2D
S1131780974C0E942418892B09F418C1BBCE609190
S11317900A3870910B38FB0101900020E9F731976A
S11317A0AF01461B570BD0911D388D2F90E0875CFD
S11317B0974C0E942418892B09F0A4CEFFC0609195
S11317C00A3870910B38FB0101900020E9F731973A
S11317D0AF01461B570BD0911D388D2F90E0875CCD
S11317E0974C0E942418892B09F08CCEE7C0609195
S11317F00A3870910B38FB0101900020E9F731970A
S1131800AF01461B570BD0911D388D2F90E0875C9C
S1131810974C0E942418892B09F4D0C073CE609190
S11318200C3870910D38FB0101900020E9F73197D5
S1131830AF01461B570BD0911D380D2F10E0C80186
S1131840875C974C0E942418892B09F4DBC0B7CE1F
S1131850C33009F0E2C0B3CEC33009F46BCEE6C0A6
S11318606091003870910138FB0101900020E9F784
S11318703197AF01461B570BD0911D388D2F90E047
S1131880875C974C0E942418892B09F4ECC83FC943
S11318906091003870910138FB0101900020E9F754
S11318A03197AF01461B570BD0911D388D2F90E017
S11318B0875C974C0E942418892B09F444C997C962
S11318C06091003870910138FB0101900020E9F724
S11318D03197AF01461B570BD0911D388D2F90E0E7
S11318E0875C974C0E942418892B09F49AC9D2CE9C
S11318F02091173830E08D2F90E00496281739078F
S113190009F0E7C9CFC96091023870910338FB012F
S113191001900020E9F73197AF01461B570BD09196
S11319201D380D2F10E0075C174CC8010E942418C5
S1131930892B09F4E5C9FCC92091173830E08D2FB3
S113194090E006962817390709F033CA14CA209183
S1131950173830E08D2F90E006962817390709F0E4
S113196069CA4BCAC23009F009CB69CA609106380A
S113197070910738FB0101900020E9F73197AF011E
S1131980461B570BD0911D380D2F10E0C801875C02
S1131990974C0E942418892B09F40DCB3ECC20913E
S11319A0173830E08D2F90E006962817390709F094
S11319B0D2CBAFCBC33009F07DCCA4CD2091173866
S11319C030E08D2F90E004962817390709F47BCC7A
S11319D02ECD60910C3870910D38FB0101900020E0
S11319E0E9F73197AF01461B570BD0911D380D2FE6
S11319F010E0C801875C974C0E942418892B09F0D9
S1131A0016CDA7CC2091173830E08D2F90E00496A6
S1131A10281739070CF0A7CC0ACDC63009F06ECDD3
S1131A20CECDD0911D380D2F10E084CDC630C9F332
S1131A3065CDDF91CF911F910F91FF90EF90DF90D3
S1131A40CF90BF90AF909F908F900895EF92FF92A8
S1131A500F931F93CF93DF931092993810929A3873
S1131A6010929B3810929C3880E090E0A0E8BFE38D
S1131A708093AA389093AB38A093AC38B093AD3828
S1131A801092303810923138109232381092333824
S1131A9010927F38109280381092813810928238D8
S1131AA08093953890939638A0939738B09398384C
S1131AB01092C8381092C9381092CA381092CB3894
S1131AC00F2EF0E4EF2EF5EBFF2EF02D03EA18E3D2
S1131AD0C0E0D0E0F70161917F01F80161938F01CB
S1131AE02196CE010E940601C630D10599F70F2E2A
S1131AF0F7E4EF2EF5EBFF2EF02D0DE918E3CFE11F
S1131B00D0E0F70161917F01F80161938F01CE016B
S1131B100E9406012196C532D10599F710921B380F
S1131B2010921C3882E090E08093193890931A3810
S1131B300E944A030E94BD0362E485E290E00E9491
S1131B40060163E486E290E00E94060161E487E214
S1131B5090E00E94060162E088E290E00E940601A3
S1131B60DF91CF911F910F91FF90EF90089580E046
S1131B7090E00E94FC000895EF92FF920F931F9350
S1131B80CF93DF930F2EF3EAEF2EF8E3FF2EF02D21
S1131B900DE918E3C0E0D0E02196CE010E94FC00DC
S1131BA0D7018D937D01CE014E960E94FC00F80171
S1131BB081938F01C630D10579F7EDE9F8E380818F
S1131BC090E0C09780931B3890931C38818190E0FB
S1131BD0C0978093193890931A3887E290E00E9456
S1131BE0FC008093AF3885E290E00E94FC00809373
S1131BF0933886E290E00E94FC008093943888E257
S1131C0090E00E94FC008093AE3884E0E4E3F8E3C3
S1131C10DF011D928A95E9F71092163880911638E3
S1131C208430B0F4C09116388091163890E007964D
S1131C300E94FC00EC2FF0E0EC5CF74C8083809178
S1131C4016388F5F8093163880911638843050F39D
S1131C50E4E3F8E380819181A281B3818093993890
S1131C6090939A38A0939B38B0939C3884E0DF011A
S1131C701D928A95E9F710921638809116388430AF
S1131C80B0F4C09116388091163890E00B960E94FB
S1131C90FC00EC2FF0E0EC5CF74C8083809116386C
S1131CA08F5F8093163880911638843050F3E4E3C4
S1131CB0F8E380819181A281B3818093AA389093C3
S1131CC0AB38A093AC38B093AD3884E0DF011D92FB
S1131CD08A95E9F710921638809116388430B0F45A
S1131CE0C09116388091163890E00F960E94FC003F
S1131CF0EC2FF0E0EC5CF74C8083809116388F5F1A
S1131D008093163880911638843050F3E4E3F8E376
S1131D1080819181A281B38180933038909331384E
S1131D20A0933238B093333884E0DF011D928A9552
S1131D30E9F710921638809116388430B0F4C091C7
S1131D4016388091163890E043960E94FC00EC2FE0
S1131D50F0E0EC5CF74C8083809116388F5F8093C1
S1131D60163880911638843050F3E4E3F8E3808128
S1131D709181A281B38180937F3890938038A0931E
S1131D808138B093823884E0DF011D928A95E9F7A7
S1131D9010921638809116388430B0F4C0911638F9
S1131DA08091163890E047960E94FC00EC2FF0E0FA
S1131DB0EC5CF74C8083809116388F5F80931638E3
S1131DC080911638843050F3E4E3F8E38081918104
S1131DD0A281B3818093953890939638A0939738D5
S1131DE0B093983884E0DF011D928A95E9F7109248
S1131DF01638809116388430B0F4C091163880912A
S1131E00163890E04B960E94FC00EC2FF0E0EC5C5E
S1131E10F74C8083809116388F5F809316388091B9
S1131E201638843050F38091343890913538A0912D
S1131E303638B09137388093C8389093C938A09316
S1131E40CA38B093CB38DF91CF911F910F91FF9097
S1131E50EF9008950E94B70D813039F061E080E081
S1131E6090E00E9406010E94260D0E94BC0D809104
S1131E70AE380E9476100E9415018DE890E2019719
S1131E80F1F700008BE798E30E94F1018DE890E2FE
S1131E900197F1F7000064EC78E38BE798E30E9484
S1131EA02E018DE890E20197F1F700000E94CA101C
S1131EB0809318380E943004F9CF1F920F920FB606
S1131EC00F9211242F933F934F935F936F937F93BC
S1131ED08F939F93AF93BF93EF93FF938CEC98E30F
S1131EE00E945D10FF91EF91BF91AF919F918F91EF
S1131EF07F916F915F914F913F912F910F900FBE02
S1131F000F901F901895FC01608371834160DB0181
S1131F1013964C93A081B18116962C930190F08175
S1131F20E02D81E0858308950F93CF93DF93EC0137
S1131F302231C0F50131C0F588A5811137C081E097
S1131F4088A719A6660F6A832223A1F0E42FF52F30
S1131F506FEF620F70E06F5F7F4F40E050E0919150
S1131F60DE01A40FB51F13969C934F5F5F4F461776
S1131F705707A9F72CA30DA31EA21FA28CA1882387
S1131F8039F08A818E7FE881F981878381E011C0ED
S1131F908DA1882369F08A818160E881F981878332
S1131FA081E007C080E005C080E003C080E001C09C
S1131FB081E0DF91CF910F9108950F9300E00E948B
S1131FC0940F0F9108950F93042F20E040E050E008
S1131FD00E94940F0F910895FC01A081B181159680
S1131FE09C91159792FF03C084E081A702C083E00F
S1131FF081A7986015969C9310A60895CF93DF93BC
S1132000FC0194A125A1A081B18115968C9115970D
S113201084FF07C083E014968C9385E081A710A603
S11320201CC086A1891758F486A1EF01C80FD11DE1
S11320308B8118968C9386A18F5F86A30EC087A18F
S1132040821728F48281816017968C9306C083E0FE
S113205014968C9381E081A710A6DF91CF91089507
S1132060FC0187A1803170F4A081B18118968C9114
S113207097A1DF01A90FB11D54968C9387A18F5F9F
S113208087A308C0A081B18183E014968C9382E079
S113209081A710A695A187A1891730F40190F0813A
S11320A0E02D82E084830895A081B18187E01496B5
S11320B08C9381E081A710A60895DC01ED91FC9139
S11320C02581322F3C7019F00E94EC0F089526FFF1
S11320D003C00E94FE0F089522231CF40E943010B6
S11320E0089526E0FC0121A710A60895853071F01B
S11320F028F48230B9F0843031F011C0863049F0D0
S1132100873051F00CC020E03BE40EC020EB34E0FB
S11321100BC020EC32E108C02CE231E005C02CE217
S113212031E002C020E835E2032E000C440B550BCD
S113213064E573E78BEC90E00E94EA16E0E2F4E0D9
S1132140808184608083A4E2B4E08C9184608C9369
S11321508081877F8083808181608083832F99271A
S113216087FD9A958093090820930808E5E0F8E034
S113217080818160808380EC8093060883E0809373
S113218007080895E4E0F8E0908195FFFDCF80937F
S113219002080895E4E0F8E080818823ECF7809158
S11321A0000808958A3010F4805D0895895C0895CC
S11321B01F93CF93DF93182FEB0182958F700E94AA
S11321C0D2108883812F8F700E94D2108983DF916F
S11321D0CF911F910895FC01208190ED920F9A30C8
S11321E020F4892F8295807F0AC08FEB820F86307E
S11321F028F42753822F8295807F01C080E091814B
S113220020ED290F2A3010F4820F08952FEB290FA7
S1132210263010F49753890F0895AF92BF92CF924E
S1132220DF92EF92FF920F931F93CF93DF9300D02F
S1132230CDB7DEB74130510519F061112BC03AC05A
S11322406623C9F08C016150262F30E02F5F3F4F89
S11322507C01E20EF31EC12CD12C5801F8018191AE
S11322608F010E94C210F5018081C80ED11CE016B6
S1132270F10699F702C0C12CD12CBE016F5F7F4FCC
S11322808C2D0E94D81089810E94C2108A810E94DC
S1132290C21010C08C01615070E06F5F7F4F7C01F1
S11322A0E60EF71EF80181918F010E94C2100E15EF
S11322B01F05C1F78DE00E94C2100F900F90DF91AF
S11322C0CF911F910F91FF90EF90DF90CF90BF902F
S11322D0AF9008955058BB27AA270E9482110C94EE
S11322E0C6120E94B81238F00E94BF1220F039F4CE
S11322F09F3F19F426F40C94B5120EF4E095E7FB15
S11323000C94AF12E92F0E94D71258F3BA17620740
S113231073078407950720F079F4A6F50C94F91255
S11323200EF4E0950B2EBA2FA02D0B01B9019001EC
S11323300C01CA01A0011124FF27591B99F0593F30
S113234050F4503E68F11A16F040A22F232F342F78
S11323504427585FF3CF469537952795A795F040C6
S11323605395C9F77EF41F16BA0B620B730B840BDB
S1132370BAF09150A1F0FF0FBB1F661F771F881F93
S1132380C2F70EC0BA0F621F731F841F48F48795EB
S113239077956795B795F7959E3F08F0B0CF9395DD
S11323A0880F08F09927EE0F9795879508950E9456
S11323B08B1208F481E008950E94F0110C94C61267
S11323C00E94BF1258F00E94B81240F029F45F3FF7
S11323D029F00C94AF1251110C94FA120C94B5120A
S11323E00E94D71268F39923B1F3552391F3951BF7
S11323F0550BBB27AA2762177307840738F09F5F22
S11324005F4F220F331F441FAA1FA9F335D00E2E8E
S11324103AF0E0E832D091505040E695001CCAF7FB
S11324202BD0FE2F29D0660F771F881FBB1F2617BE
S113243037074807AB07B0E809F0BB0B802DBF0195
S1132440FF2793585F4F3AF09E3F510578F00C9464
S1132450AF120C94FA125F3FE4F3983ED4F38695DE
S113246077956795B795F7959F5FC9F7880F911D85
S11324709695879597F90895E1E0660F771F881F71
S1132480BB1F621773078407BA0720F0621B730B24
S1132490840BBA0BEE1F88F7E0950895E89409C001
S11324A097FB3EF490958095709561957F4F8F4F83
S11324B09F4F9923A9F0F92F96E9BB279395F69599
S11324C0879577956795B795F111F8CFFAF4BB0F17
S11324D011F460FF1BC06F5F7F4F8F4F9F4F16C07B
S11324E0882311F096E911C0772321F09EE8872F05
S11324F0762F05C0662371F096E8862F70E060E0C1
S11325002AF09A95660F771F881FDAF7880F969539
S1132510879597F90895990F0008550FAA0BE0E8DD
S1132520FEEF16161706E807F907C0F01216130691
S1132530E407F50798F0621B730B840B950B39F4D1
S11325400A2661F0232B242B252B21F408950A2637
S113255009F4A140A6958FEF811D811D089597F977
S11325609F6780E870E060E008959FEF80EC089535
S113257000240A941616170618060906089500245E
S11325800A9412161306140605060895092E0394D8
S1132590000C11F4882352F0BB0F40F4BF2B11F44C
S11325A060FF04C06F5F7F4F8F4F9F4F089557FDAB
S11325B09058440F551F59F05F3F71F04795880FAD
S11325C097FB991F61F09F3F79F087950895121644
S11325D013061406551FF2CF4695F1DF08C01616F0
S11325E017061806991FF1CF8695710561050894A1
S11325F00895E894BB2766277727CB0197F90895B8
S11326000E9413130C94C6120E94B81238F00E9450
S1132610BF1220F0952311F00C94AF120C94B51254
S113262011240C94FA120E94D71270F3959FC1F3EF
S1132630950F50E0551F629FF001729FBB27F00D6C
S1132640B11D639FAA27F00DB11DAA1F649F6627C1
S1132650B00DA11D661F829F2227B00DA11D621F10
S1132660739FB00DA11D621F839FA00D611D221FCA
S1132670749F3327A00D611D231F849F600D211DAE
S1132680822F762F6A2F11249F5750409AF0F1F031
S113269088234AF0EE0FFF1FBB1F661F771F881F9A
S11326A091505040A9F79E3F510580F00C94AF1211
S11326B00C94FA125F3FE4F3983ED4F38695779531
S11326C06795B795F795E7959F5FC1F7FE2B880F40
S11326D0911D9695879597F90895A0E1B0E0E3E7F9
S11326E0F3E10C940C177C011B016A01FC011682B6
S11326F01782838181FF44C39E012F5F3F4F3901BD
S1132700F7019381F10193FD859193FF81911F015D
S1132710882309F431C3853239F493FD859193FFFD
S113272081911F01853239F4B70190E00E943C1871
S113273056016501E5CF10E0512C912CFFE1F9150C
S1132740D8F08B3279F038F4803279F08332A1F406
S1132750F92DF0612EC08D3261F0803369F4292D9A
S113276021602DC0392D3260932E892D8460982EDE
S11327702AC0E92DE86015C097FC2DC020ED280F74
S11327802A3088F496FE06C03AE0139F200D1124E7
S1132790122F19C08AE0589E200D1124522EE92DC3
S11327A0E0629E2E10C08E3231F496FCE5C2F92D03
S11327B0F0649F2E08C08C3621F4292D2068922EB7
S11327C002C0883641F4F10193FD859193FF819114
S11327D01F018111B3CF9BEB980F933020F4992DF7
S11327E09061805E07C09BE9980F933008F066C142
S11327F0992D9F7E96FF16E09F73992E853619F4C6
S11328009064992E08C0863621F4392F3068932EAF
S113281002C01111115097FE07C01C3350F4442418
S11328204394410E27E00BC0183038F027E017E03E
S113283005C027E09CE3492E02C0212F412C5601FC
S113284084E0A80EB11CF6016081718182819381BC
S1132850042DA3010E9441176C01F981FC87F0FF4C
S113286002C0F3FF06C091FC06C092FE06C000E25F
S113287005C00DE203C00BE201C000E08C858C7042
S113288019F001115AC29BC297FE10C04C0CFC8572
S1132890F4FF04C08A81813309F44A94141474F552
S11328A028E0241578F588E0482E2CC096FC2AC030
S11328B0812F90E08C159D059CF03CEFC3163FEFF3
S11328C0D30674F0892D8068982E0AC0E2E0F0E007
S11328D0EC0FFD1FE10FF11D8081803319F41150BD
S11328E01111F4CF97FE0EC044244394410E812F5E
S11328F090E0C816D9062CF41C1904C0442443944F
S113290001C010E097FE06C01C141D0434F4C60177
S1132910019605C085E090E002C081E090E00111DD
S11329200196112331F0212F30E02F5F3F4F820FAA
S1132930931F252D30E08217930714F4581A01C011
S1132940512C892D897049F4552039F0B70180E262
S113295090E00E943C185A94F7CF002329F0B70165
S1132960802F90E00E943C1893FC09C0552039F058
S1132970B70180E390E00E943C185A94F7CF97FE89
S11329804CC04601D7FE02C0812C912CC601881987
S11329909909F301E80FF91FED87FE8796012419C1
S11329A031092F87388B012F10E0119501951109FA
S11329B03FEF8316930629F4B7018EE290E00E945C
S11329C03C18C814D9044CF08F859889881599054A
S11329D024F4ED85FE85818101C080E3F1E08F1A46
S11329E091082D853E852F5F3F4F2D873E878016AA
S11329F091062CF0B70190E00E943C18D9CFC8147E
S1132A00D90441F49A81963320F4953319F43C8522
S1132A1034FF81E3B70190E04EC08A81813319F01D
S1132A209C859F7E9C87B70190E00E943C18111101
S1132A3005C094FC18C085E690E017C0B7018EE28B
S1132A4090E00E943C181E5F82E001E0080FF30151
S1132A50E80FF11D8081B70190E00E943C18802F9F
S1132A600113F3CFE6CF85E490E0B7010E943C1850
S1132A70D7FC06C0C114D10441F4EC85E4FF05C0C1
S1132A80D194C194D1088DE201C08BE2B70190E0EA
S1132A900E943C1880E32AE0C216D1042CF08F5F18
S1132AA0FAE0CF1AD108F7CFB70190E00E943C18A2
S1132AB0B701C601C0960E943C1854C1833631F058
S1132AC0833779F0833509F056C020C0560132E0CF
S1132AD0A30EB11CF6018081898301E010E063013B
S1132AE012C05601F2E0AF0EB11CF601C080D180D5
S1132AF096FE03C0612F70E002C06FEF7FEFC60146
S1132B000E9431188C01F92DFF7714C0560122E080
S1132B10A20EB11CF601C080D18096FE03C0612FC5
S1132B2070E002C06FEF7FEFC6010E9419188C019C
S1132B30F92DF0689F2EF3FD1AC0852D90E008173B
S1132B401907A8F4B70180E290E00E943C185A9457
S1132B50F4CFF60197FC859197FE81916F01B7013F
S1132B6090E00E943C1851105A940150110901152B
S1132B70110579F7F7C0843611F0893661F55601ED
S1132B8097FE09C024E0A20EB11CF6016081718198
S1132B90828193810AC0F2E0AF0EB11CF60160811C
S1132BA07181072E000C880B990BF92DFF769F2E4F
S1132BB097FF09C090958095709561957F4F8F4FD1
S1132BC09F4FF0689F2E2AE030E0A3010E94A818CE
S1132BD0C82EC6183FC0092D853721F40F7E2AE080
S1132BE030E01DC0097F8F3691F018F4883559F014
S1132BF0C3C0803719F0883711F0BEC0006104FFEC
S1132C0009C0046007C094FE08C0066006C028E03E
S1132C1030E005C020E130E002C020E132E056019E
S1132C2007FF09C084E0A80EB11CF6016081718120
S1132C308281938108C0F2E0AF0EB11CF60160817D
S1132C40718180E090E0A3010E94A818C82EC618E4
S1132C500F77902E96FE0BC0092D0E7FC11650F4EF
S1132C6094FE0AC092FC08C0092D0E7E05C0DC2C1F
S1132C70092D03C0DC2C01C0D12E04FF0DC0FE01C0
S1132C80EC0DF11D8081803311F4097E09C002FF2F
S1132C9006C0D394D39404C0802F867809F0D394CB
S1132CA003FD11C000FF06C01C2DD51480F4150DC2
S1132CB01D190DC0D51458F4B70180E290E00E94AC
S1132CC03C18D394F7CFD51410F45D1801C0512CDF
S1132CD004FF10C0B70180E390E00E943C1802FF9B
S1132CE017C001FD03C088E790E002C088E590E0CA
S1132CF0B7010CC0802F867859F001FF02C08BE227
S1132D0001C080E207FD8DE2B70190E00E943C180B
S1132D10C11638F4B70180E390E00E943C181150CA
S1132D20F7CFCA94F301EC0DF11D8081B70190E057
S1132D300E943C18C110F5CF15C0F4E0F51560F5FC
S1132D4084E0581A93FE1FC0011127C02C8523FF6D
S1132D502AC00CE710E0392D3071932EF8018491CC
S1132D60811124C0552009F4E4CCB70180E290E03D
S1132D700E943C185A94F6CFF7018681978126C0A9
S1132D808FEF9FEF23C0B70180E290E00E943C18D0
S1132D905A945110F8CFD8CF512CB701802F90E01E
S1132DA00E943C18D3CF00E810E0D5CF9110805298
S1132DB0B70190E00E943C180F5F1F4FCFCF23E074
S1132DC0251510F483E0BDCF512CC0CF6096E2E10D
S1132DD00C942517A1E21A2EAA1BBB1BFD010DC0E2
S1132DE0AA1FBB1FEE1FFF1FA217B307E407F507B7
S1132DF020F0A21BB30BE40BF50B661F771F881F93
S1132E00991F1A9469F760957095809590959B0128
S1132E10AC01BD01CF0108952F923F924F925F9272
S1132E206F927F928F929F92AF92BF92CF92DF92D6
S1132E30EF92FF920F931F93CF93DF93CDB7DEB73B
S1132E40CA1BDB0BCDBFDEBF09942A8839884888AA
S1132E505F846E847D848C849B84AA84B984C884B2
S1132E60DF80EE80FD800C811B81AA81B981CE0FA9
S1132E70D11DCDBFDEBFED010895662777270C94E1
S1132E800619283008F027E03327DA01990F311D9D
S1132E9087FD916000966105710539F432602E5FFB
S1132EA03D9330E32A95E1F708959F3F30F0803851
S1132EB07105610509F03C5F3C5F3D93913008F07A
S1132EC08068911DDF93CF931F930F93FF92EF922E
S1132ED0192F987F9695E92F96959695E90FFF27D8
S1132EE0E252FF4F99273327EE24FF24A701E7017D
S1132EF005900894079428F4360FE71EF81E491F1E
S1132F00511D660F771F881F991F0694A1F705901E
S1132F10079428F4E70EF81E491F561FC11D770FAA
S1132F20881F991F661F0694A1F70590079428F43B
S1132F30F80E491F561FC71FD11D880F991F661F02
S1132F40771F0694A1F70590079420F4490F561FA4
S1132F50C71FD81F990F661F771F881F0694A9F7EC
S1132F6084911095177041F0D695C795579547955C
S1132F70F794E7941A95C1F7E4E8F0E068941590A3
S1132F80159135916591959105907FE27395E118BE
S1132F90F10A430B560BC90BD009C0F7E10CF11E23
S1132FA0431F561FC91FD01D7EF4703311F48A9538
S1132FB0E6CFE894015030F0080F0AF40027021716
S1132FC008F4202F2395022F7A3328F079E37D9398
S1132FD02A95E9F710C07D932A9589F6069497956A
S1132FE06795379517951794E118F10A430B560B1B
S1132FF0C90BD00998F023957E9173957A3308F024
S113300070E37C932013B8F77E9170617D9330F068
S1133010839571E37D9370E32A95E1F71124EF9092
S1133020FF900F911F91CF91DF91992787FD909584
S11330300895FC010590615070400110D8F7809507
S113304090958E0F9F1F0895FB01DC0104C08D91A4
S11330500190801921F441505040C8F7881B990B06
S11330600895FC016150704001900110D8F78095DB
S113307090958E0F9F1F08950F931F93CF93DF9307
S1133080FB01238121FD03C08FEF9FEF2CC022FFA2
S113309016C046815781248135814217530744F471
S11330A0A081B1819D012F5F3F4F208331838C9399
S11330B0268137812F5F3F4F2683378314C08B01CE
S11330C0EC01FB010084F185E02D0995892BE1F6E3
S11330D0D80116968D919C911797019616968D930B
S11330E09C931797CE01DF91CF911F910F91089573
S11330F0AEE0B0E0EEE7F8E10C941A170D891E89F2
S11331008F89988D26E02C8309831A8397FF02C048
S113311080E090E801978D839E83AE01455E5F4F0A
S1133120698D7A8DCE0101960E946D134D815E8169
S113313057FD0AC02F813885421753070CF49A01B2
S1133140F801E20FF31F10822E96E4E00C9433177B
S1133150FA01AA27283051F1203181F1E8946F93C4
S11331606E7F6E5F7F4F8F4F9F4FAF4FB1E03ED06A
S1133170B4E03CD0670F781F891F9A1FA11D680F08
S1133180791F8A1F911DA11D6A0F711D811D911D3B
S1133190A11D20D009F468943F912AE0269F1124B0
S11331A03019305D3193DEF6CF010895462F477014
S11331B0405D4193B3E00FD0C9F7F6CF462F4F706F
S11331C0405D4A3318F0495D31FD4052419302D0CD
S11331D0A9F7EACFB4E0A695979587957795679573
S11331E0BA95C9F700976105710508959B01AC0173
S11331F00A2E06945795479537952795BA95C9F79A
S1133200620F731F841F951FA01D0895A0E0B0E0F6
S1133210ECE0F9E10C941217EC016B0161157105F6
S113322019F0FB01808391837E01FFEFEF1AFF0AFF
S11332300881802F90E00E94541A892B11F0E70135
S1133240F3CF0D3239F47E0182E0E80EF11C0981DE
S113325011E008C00B3229F47E0192E0E90EF11C62
S1133260098110E0E701219743E050E066E871E04E
S1133270CE010E945D1A892BC1F4239645E050E0EB
S113328061E871E0CE010E945D1A892B09F425964C
S1133290C114D10419F0F601C083D1831111F6C011
S11332A060E070E080E89FE7FAC043E050E06EE73A
S11332B071E0CE010E945D1A892B59F4C114D10426
S11332C009F4E9C0F2E0EF0EF11CF601E082F182AC
S11332D0E2C020E030E0A901C0E0D0E0F70180EDD9
S11332E0A82EA00E89E08A1530F1912F9260B92E94
S11332F0812F887012FF04C0811124C0219622C03E
S113330081112197A5E0B0E00E94781ADC01CB017D
S1133310880F991FAA1FBB1F9C01AD012A0D311DE7
S1133320411D511D283989E93807480789E15807A3
S113333048F0166006C09EEFA9120AC013FD40C0F3
S11333401860B12E8FEFE81AF80A00811B2DC6CF42
S1133350802F8F7D8534A1F580818D3211F4106129
S113336006C08B3221F0319661E070E004C08181A7
S1133370329662E070E080538A3018F0E61BF70B57
S11333801FC060E070E060389CE079075CF4DB010A
S1133390AA0FBB1FAA0FBB1F6A0F7B1F660F771FE5
S11333A0680F711D3196DF0111978C9180538A301B
S11333B050F314FF03C0719561957109C60FD71FAF
S11333C011FF08C0C114D10429F0CF010197F601FF
S11333D080839183CA01B9010E944E12212F237068
S11333E0233019F04B015C0106C04B015C01B7FAB4
S11333F0B094B7F8B09420E030E0A901C501B4015D
S11334000E94D711882309F43EC0D7FF06C0D19586
S1133410C195D1090DE911E002C005EB11E0680185
S1133420F8E1CF1AD10890E2E92EF12CCE15DF0590
S113343074F0F8012591359145915491C501B40179
S11334400E9400134B015C01CE19DF09EFCF045039
S11334501109F594E7940C151D0541F78A2D880F81
S11334608B2D881F8F3F49F020E030E0A901C50172
S1133470B4010E94D711811106C082E290E08093CA
S1133480F6389093F738C501B40109C060E070E0E4
S113349080E89FEF04C060E070E080EC9FE7CDB768
S11334A0DEB7ECE00C942B1791110C94751A803252
S11334B019F089508550C8F70895FB01DC0141508B
S11334C0504088F08D9181341CF08B350CF4805E73
S11334D0659161341CF06B350CF4605E861B6111E0
S11334E071F3990B0895881BFCCF992788270895B9
S11334F00E94831AA59F900DB49F900DA49F800DE8
S1133500911D11240895A29FB001B39FC001A39FF0
S1133510700D811D1124911DB29F700D811D112408
S10B3520911D0895F894FFCFFA
S1133528252B30392E326600252B3031322E344586
S113353800393939393939003038413031330030BC
S11335483230303030005244005745005243414C29
S1133558005743414C005253524E005253005355A6
S1043568005E
S11135694EB551B554B559B55EB563B566B5EA
S9030000FC
